:100000000C942A000C94581C0C948B1C0C94BE1C51
:100010000C9447000C9447000C941B160C9447005A
:100020000C9447000C9447000C9447000C94470034
:100030000C9447000C9447000C9447000C94470024
:100040000C9447000C9447000C9447000C94470014
:100050000C94470011241FBECFE5D8E0DEBFCDBF12
:1000600011E0A0E6B0E0E2ECF5E402C005900D92EC
:10007000A63CB107D9F711E0A6ECB1E001C01D9292
:10008000A53DB107E1F70E945C1D0C94DF220C94A2
:100090000000EF92FF920F931F937B018C0120E0F1
:1000A00030E040E05FE40E94F50388238CF0C80153
:1000B000B70120E030E040E05FE40E94C1010E940F
:1000C00055049B01AC01205030404040504806C0D0
:1000D000C801B7010E9455049B01AC01B901CA01D6
:1000E0001F910F91FF90EF900895A0E0B0E0EBE733
:1000F000F0E00C94A822DC012B01FA019C919230D3
:1001000008F439C1EB018881823008F433C194309E
:1001100069F4843009F02FC111969C91119789815F
:10012000981709F428C1A6EAB0E025C1843009F483
:1001300021C18230A9F4923009F01DC19A01AD01AC
:1001400088E0EA010990AE01E90109929E0181501F
:10015000C1F7E201898111969C918923818308C1AD
:10016000923009F407C112962D903C901397EB0141
:100170008A819B811496AD90BD90CD90DC901797AD
:10018000EC80FD800E811F819101281B390BB90184
:1001900037FF04C066277727621B730B6032710537
:1001A0000CF061C0121613066CF537014801062EDB
:1001B00004C096948794779467940A94D2F721E0C8
:1001C00030E040E050E004C0220F331F441F551FB1
:1001D0006A95D2F721503040404050402E213F21B7
:1001E00040235123211531054105510521F021E01E
:1001F00030E040E050E079018A01E628F72808293C
:1002000019293CC0232BD1F1260E371E350146019A
:10021000062E04C096948794779467940A94D2F734
:1002200021E030E040E050E004C0220F331F441FC3
:10023000551F6A95D2F721503040404050402A2146
:100240003B214C215D21211531054105510521F04E
:1002500021E030E040E050E059016A01A628B728CB
:10026000C828D9280BC0821593052CF01C01AA249C
:10027000BB24650103C0EE24FF24870111969C91E5
:10028000D20111968C91981709F445C0992339F041
:10029000A80197012A193B094C095D0906C0A6016E
:1002A00095012E193F09400B510B57FD08C01182D3
:1002B0003382228224833583468357831DC081E0A5
:1002C00081833382228288279927DC01821B930B4A
:1002D000A40BB50B84839583A683B7830DC0220F2F
:1002E000331F441F551F24833583468357838281E0
:1002F000938101979383828324813581468157813D
:10030000DA01C9010197A109B1098F5F9F4FAF4F72
:10031000BF4328F30BC0918333822282EA0CFB1C7B
:100320000C1D1D1DE482F5820683178383E0808304
:10033000248135814681578157FF1AC0C901AA27F8
:1003400097FDA095BA2F81709070A070B0705695EF
:10035000479537952795822B932BA42BB52B848318
:100360009583A683B7838281938101969383828349
:10037000DF0101C0D201CD01CDB7DEB7E2E10C94BF
:10038000C422A0E2B0E0E7ECF1E00C94B42269836F
:100390007A838B839C832D833E834F835887E9E048
:1003A000EE2EF12CEC0EFD1ECE010196B7010E943F
:1003B00046068E010F5E1F4FCE010596B8010E94C2
:1003C00046068A8991E089278A8BC701B801AE0168
:1003D000475E5F4F0E9475000E947105A096E6E09F
:1003E0000C94D022A0E2B0E0E8EFF1E00C94B4224B
:1003F00069837A838B839C832D833E834F835887C5
:10040000F9E0EF2EF12CEC0EFD1ECE010196B701A6
:100410000E9446068E010F5E1F4FCE010596B80161
:100420000E944606C701B801AE01475E5F4F0E94B9
:1004300075000E947105A096E6E00C94D022A0E21F
:10044000B0E0E5E2F2E00C94A82269837A838B8322
:100450009C832D833E834F835887CE010196BE0136
:10046000675F7F4F0E944606CE010596BE016F5E14
:100470007F4F0E9446069985923088F089898230A4
:10048000C8F0943019F4823051F404C0843029F457
:10049000923081F486EA90E0C6C0923049F420E0C0
:1004A0009A858A89981321E02A87CE010996BBC0D4
:1004B000823049F420E09A858A89981321E02A8BBA
:1004C000CE014196B0C02D843E844F8458886D88FB
:1004D0007E888F88988CEE24FF248701AA24BB2471
:1004E000650140E050E060E070E0E0E0F0E0C10174
:1004F00081709070892BE9F0E60CF71C081D191D1E
:100500009A01AB012A0D3B1D4C1D5D1D80E090E062
:10051000A0E0B0E0E614F7040805190520F481E036
:1005200090E0A0E0B0E0BA01A901480F591F6A1F8E
:100530007B1FAA0CBB1CCC1CDD1C97FE08C081E0F5
:1005400090E0A0E0B0E0A82AB92ACA2ADB2A3196B6
:10055000E032F10549F0660C771C881C991C569412
:10056000479437942794C3CFFA85EA892B893C892D
:100570008B859C85280F391F2E5F3F4F17C0CA01FE
:1005800081709070892B61F016950795F794E79428
:1005900080E090E0A0E0B0E8E82AF92A0A2B1B2BC3
:1005A00076956795579547952F5F3F4F77FDE7CF36
:1005B0000CC0440F551F661F771F17FD4160EE0CDE
:1005C000FF1C001F111F21503040403090E05907A0
:1005D00090E0690790E4790760F32B8F3C8FDB0193
:1005E000CA018F779070A070B07080349105A1051A
:1005F000B10561F447FD0AC0E114F10401051105DC
:1006000029F0405C5F4F6F4F7F4F40781A8EFE1786
:1006100011F081E08A8F4D8F5E8F6F8F78A383E01A
:10062000898FCE0149960E947105A096E2E10C9453
:10063000C422A8E1B0E0EFE1F3E00C94B0226983BA
:100640007A838B839C832D833E834F835887B9E0C5
:10065000EB2EF12CEC0EFD1ECE010196B7010E948F
:1006600046068E010F5E1F4FCE010596B8010E940F
:1006700046062985223008F47EC03989323010F4CC
:10068000B8017CC08A859A8989278A87243011F02D
:10069000223031F4231709F06EC066EA70E06EC0B4
:1006A000343039F41D861E861F86188A1C861B86E8
:1006B00004C0323021F484E08987B7015FC02B8504
:1006C0003C858B899C89281B390B3C872B87ED84C3
:1006D000FE840F851889AD88BE88CF88D88CEA142F
:1006E000FB040C051D0540F4EE0CFF1C001F111F40
:1006F000215030403C872B8720E030E040E050E044
:1007000080E090E0A0E0B0E460E070E0EA14FB0478
:100710000C051D0540F0282B392B4A2B5B2BEA18C2
:10072000FB080C091D09B695A79597958795EE0CC2
:10073000FF1C001F111F6F5F7F4F6F31710531F775
:10074000DA01C9018F779070A070B0708034910584
:10075000A105B10561F427FD0AC0E114F10401050A
:10076000110529F0205C3F4F4F4F5F4F20782D87B8
:100770003E874F87588BBE01675F7F4FCB010E943A
:1007800071056896EAE00C94CC22A8E1B0E0EBECAD
:10079000F3E00C94B42269837A838B839C832D834A
:1007A0003E834F83588789E0E82EF12CEC0EFD1E26
:1007B000CE010196B7010E9446068E010F5E1F4FC3
:1007C000CE010596B8010E9446068985823040F028
:1007D0008989823028F0C701B8010E94BE0601C095
:1007E0008FEF6896E6E00C94D022A8E1B0E0EBEF42
:1007F000F3E00C94B42269837A838B839C832D83EA
:100800003E834F83588789E0E82EF12CEC0EFD1EC5
:10081000CE010196B7010E9446068E010F5E1F4F62
:10082000CE010596B8010E9446068985823040F0C7
:100830008989823028F0C701B8010E94BE0601C034
:100840008FEF6896E6E00C94D022A8E1B0E0EBE2EE
:10085000F4E00C94B42269837A838B839C832D8388
:100860003E834F83588789E0E82EF12CEC0EFD1E65
:10087000CE010196B7010E9446068E010F5E1F4F02
:10088000CE010596B8010E9446068985823040F067
:100890008989823028F0C701B8010E94BE0601C0D4
:1008A00081E06896E6E00C94D022ACE0B0E0EBE5A5
:1008B000F4E00C94B82269837A838B839C83CE0105
:1008C0000196BE016B5F7F4F0E9446068D8182308C
:1008D00061F1823050F1843021F48E81882351F10E
:1008E0002EC02F81388537FD20C06E812F31310514
:1008F0001CF06623F9F023C08EE190E0821B930B7D
:1009000029853A854B855C8504C056954795379572
:1009100027958A95D2F76623B1F05095409530958A
:1009200021953F4F4F4F5F4F0EC020E030E040E039
:1009300050E009C02FEF3FEF4FEF5FE704C020E02A
:1009400030E040E050E8B901CA012C96E2E00C9496
:10095000D422A8E0B0E0EFEAF4E00C94B0227B01EE
:100960008C01611571058105910519F482E0898377
:1009700060C083E089838EE1C82ED12CDC82CB82DB
:10098000ED82FE820F831887C801B7010E942205FD
:10099000FC013197F7FF3BC0222733272E1B3F0B6B
:1009A00057016801022E04C0D694C794B794A79447
:1009B0000A94D2F740E050E060E070E081E090E01F
:1009C000A0E0B0E004C0880F991FAA1FBB1F2A95A2
:1009D000D2F70197A109B1098E219F21A023B1234C
:1009E0000097A105B10521F041E050E060E070E022
:1009F0004A295B296C297D294D835E836F83788723
:100A00008EE190E08E1B9F0B9C838B8312C03097EE
:100A100081F00E2E04C0EE0CFF1C001F111F0A9463
:100A2000D2F7ED82FE820F831887CE1ADF0ADC82AE
:100A3000CB821A82CE0101960E9471052896EAE0C7
:100A40000C94CC22EF92FF920F931F937B018C01A9
:100A500080E0E81680E0F80681E0080780E01807EB
:100A600088F48FEFE816F1040105110531F028F044
:100A700088E090E0A0E0B0E017C080E090E0A0E067
:100A8000B0E012C080E0E81680E0F80680E00807D9
:100A900081E0180728F088E190E0A0E0B0E004C011
:100AA00080E190E0A0E0B0E020E230E040E050E003
:100AB000281B390B4A0B5B0B04C016950795F7945E
:100AC000E7948A95D2F7F701E255FF4F8081281B02
:100AD000310941095109C9011F910F91FF90EF9010
:100AE0000895DF92EF92FF920F931F93FC01E48031
:100AF000F58006811781D1808081823048F480E0C2
:100B000090E0A0E1B0E0E82AF92A0A2B1B2BA5C04F
:100B1000843009F49FC0823021F4EE24FF24870141
:100B200005C0E114F1040105110519F4E0E0F0E05D
:100B300096C0628173819FEF623879070CF05BC0C9
:100B400022E83FEF261B370B2A3131052CF020E03D
:100B500030E040E050E02AC0B801A701022E04C0F6
:100B600076956795579547950A94D2F781E090E07E
:100B7000A0E0B0E004C0880F991FAA1FBB1F2A95F0
:100B8000D2F70197A109B1098E219F21A023B1239A
:100B90000097A105B10521F081E090E0A0E0B0E070
:100BA0009A01AB01282B392B4A2B5B2BDA01C901A7
:100BB0008F779070A070B07080349105A105B10559
:100BC00039F427FF09C0205C3F4F4F4F5F4F04C0EF
:100BD000215C3F4F4F4F5F4FE0E0F0E02030A0E05E
:100BE0003A07A0E04A07A0E45A0710F0E1E0F0E07D
:100BF00079018A0127C06038710564F5FB01E1586D
:100C0000FF4FD801C7018F779070A070B07080340B
:100C10009105A105B10539F4E7FE0DC080E490E02F
:100C2000A0E0B0E004C08FE390E0A0E0B0E0E80E08
:100C3000F91E0A1F1B1F17FF05C016950795F7948D
:100C4000E794319687E016950795F794E7948A958F
:100C5000D1F705C0EE24FF248701EFEFF0E06E2FFF
:100C6000679566276795902F9F77D794DD24D79453
:100C70008E2F8695492F462B582F5D29B701CA0123
:100C80001F910F91FF90EF90DF900895FC01DB0121
:100C9000408151812281622F6F7770E0221F2227CD
:100CA000221F9381892F880F822B282F30E0991FD4
:100CB0009927991F11969C93119721153105A9F534
:100CC000411551056105710511F482E037C082E8D4
:100CD0009FEF13969C938E9312979A01AB0167E056
:100CE000220F331F441F551F6A95D1F783E08C9361
:100CF0000DC0220F331F441F551F12968D919C91DA
:100D00001397019713969C938E931297203080E04F
:100D1000380780E0480780E4580758F314962D936D
:100D20003D934D935C93179708952F3F310579F4C8
:100D3000411551056105710519F484E08C930895FE
:100D400064FF03C081E08C9312C01C9210C02F5727
:100D5000304013963C932E93129783E08C9387E058
:100D6000440F551F661F771F8A95D1F7706414963C
:100D70004D935D936D937C93179708951F93DC01BA
:100D8000FB019C91923008F447C08081823008F4C6
:100D900043C0943051F411961C91843099F58181AF
:100DA000682F70E0611B71093FC0843021F09230E0
:100DB00031F48230B9F18181882389F12DC01196F7
:100DC0001C9111978230F1F081811817D9F4129695
:100DD0002D913C911397828193818217930794F010
:100DE00028173907BCF014968D919D910D90BC91F8
:100DF000A02D2481358146815781281739074A075C
:100E00005B0718F4112341F00AC082179307A40767
:100E1000B50740F4112319F061E070E005C06FEFF1
:100E20007FEF02C060E070E0CB011F910895DF9377
:100E3000CF93CDB7DEB727970FB6F894DEBF0FBEBE
:100E4000CDBF89836A834B838B81813009F06FC06A
:100E50008981282F30E03F832E838E819F818130CE
:100E6000910549F12E813F81223031052CF48E818C
:100E70009F81009761F0D2C02E813F8122303105E1
:100E800071F18E819F8183309105E9F1C7C0AAE39A
:100E9000B0E0EAE3F0E08081482F8A81282F30E03B
:100EA00081E090E0022E02C0880F991F0A94E2F7B9
:100EB000842B8C93B3C0A7E3B0E0E7E3F0E080813C
:100EC000482F8A81282F30E081E090E0022E02C076
:100ED000880F991F0A94E2F7842B8C939FC0A4E398
:100EE000B0E0E4E3F0E08081482F8A81282F30E0F1
:100EF00081E090E0022E02C0880F991F0A94E2F769
:100F0000842B8C938BC0A1E3B0E0E1E3F0E080811F
:100F1000482F8A81282F30E081E090E0022E02C025
:100F2000880F991F0A94E2F7842B8C9377C08B81EA
:100F3000882309F073C08981282F30E03D832C83FA
:100F40008C819D818130910559F12C813D81223028
:100F500031052CF48C819D81009769F05FC02C8154
:100F60003D812230310589F18C819D81833091054D
:100F700009F440C053C0AAE3B0E0EAE3F0E08081A6
:100F8000482F8A81282F30E081E090E0022E02C0B5
:100F9000880F991F0A94E2F7809584238C933EC0B2
:100FA000A7E3B0E0E7E3F0E08081482F8A81282FB3
:100FB00030E081E090E0022E02C0880F991F0A9471
:100FC000E2F7809584238C9329C0A4E3B0E0E4E3A6
:100FD000F0E08081482F8A81282F30E081E090E086
:100FE000022E02C0880F991F0A94E2F7809584238D
:100FF0008C9314C0A1E3B0E0E1E3F0E08081482FDE
:101000008A81282F30E081E090E0022E02C0880F14
:10101000991F0A94E2F7809584238C9327960FB644
:10102000F894DEBF0FBECDBFCF91DF910895DF935F
:10103000CF93CDB7DEB727970FB6F894DEBF0FBEBC
:10104000CDBF89836A834B838B81813009F06FC068
:101050008981282F30E03F832E838E819F818130CC
:10106000910549F12E813F81223031052CF48E818A
:101070009F81009761F0D2C02E813F8122303105DF
:1010800071F18E819F8183309105E9F1C7C0ABE397
:10109000B0E0EBE3F0E08081482F8A81282F30E038
:1010A00081E090E0022E02C0880F991F0A94E2F7B7
:1010B000842B8C93B3C0A8E3B0E0E8E3F0E0808138
:1010C000482F8A81282F30E081E090E0022E02C074
:1010D000880F991F0A94E2F7842B8C939FC0A5E395
:1010E000B0E0E5E3F0E08081482F8A81282F30E0EE
:1010F00081E090E0022E02C0880F991F0A94E2F767
:10110000842B8C938BC0A2E3B0E0E2E3F0E080811B
:10111000482F8A81282F30E081E090E0022E02C023
:10112000880F991F0A94E2F7842B8C9377C08B81E8
:10113000882309F073C08981282F30E03D832C83F8
:101140008C819D818130910559F12C813D81223026
:1011500031052CF48C819D81009769F05FC02C8152
:101160003D812230310589F18C819D81833091054B
:1011700009F440C053C0ABE3B0E0EBE3F0E08081A2
:10118000482F8A81282F30E081E090E0022E02C0B3
:10119000880F991F0A94E2F7809584238C933EC0B0
:1011A000A8E3B0E0E8E3F0E08081482F8A81282FAF
:1011B00030E081E090E0022E02C0880F991F0A946F
:1011C000E2F7809584238C9329C0A5E3B0E0E5E3A2
:1011D000F0E08081482F8A81282F30E081E090E084
:1011E000022E02C0880F991F0A94E2F7809584238B
:1011F0008C9314C0A2E3B0E0E2E3F0E08081482FDA
:101200008A81282F30E081E090E0022E02C0880F12
:10121000991F0A94E2F7809584238C9327960FB642
:10122000F894DEBF0FBECDBFCF91DF910895DF935D
:10123000CF9300D000D000D0CDB7DEB789836A83CA
:101240008981282F30E03D832C834C815D814130A2
:10125000510549F18C819D818230910534F42C81B6
:101260003D812115310561F057C04C815D814230CF
:10127000510561F18C819D8183309105D1F14CC084
:10128000E9E3F0E08081282F30E08A81882F90E028
:10129000A90102C0559547958A95E2F7CA01582FD2
:1012A00051705B833AC0E6E3F0E08081282F30E0A4
:1012B0008A81882F90E0A90102C0559547958A95AB
:1012C000E2F7CA01582F51705B8327C0E3E3F0E0D7
:1012D0008081282F30E08A81882F90E0A90102C008
:1012E000559547958A95E2F7CA01582F51705B834F
:1012F00014C0E0E3F0E08081282F30E08A81882F5D
:1013000090E0A90102C0559547958A95E2F7CA0178
:10131000582F51705B8301C002C08B818E838E81F8
:1013200026960FB6F894DEBF0FBECDBFCF91DF91EA
:101330000895DF93CF9300D000D0CDB7DEB7898377
:101340006A838981282F30E03C832B838B819C81A9
:1013500081309105D1F02B813C81223031052CF474
:101360008B819C81009761F01EC02B813C812230D3
:10137000310581F08B819C818330910581F013C010
:10138000EBE3F0E08A8180830EC0E8E3F0E08A813D
:10139000808309C0E5E3F0E08A81808304C0E2E352
:1013A000F0E08A8180830F900F900F900F90CF9183
:1013B000DF910895DF93CF9300D000D0CDB7DEB793
:1013C00089836A838981282F30E03C832B838B813A
:1013D0009C8181309105D1F02B813C8122303105F7
:1013E0002CF48B819C81009761F01EC02B813C8185
:1013F0002230310581F08B819C818330910581F011
:1014000013C0EAE3F0E08A8180830EC0E7E3F0E0F6
:101410008A81808309C0E4E3F0E08A81808304C08C
:10142000E1E3F0E08A8180830F900F900F900F909E
:10143000CF91DF910895DF93CF9300D000D0CDB747
:10144000DEB789836A838981282F30E03C832B8330
:101450008B819C818130910549F12B813C81223027
:1014600031052CF48B819C81009761F05AC02B814F
:101470003C812230310571F18B819C818330910553
:10148000E9F14FC0ABE3B0E0EBE3F0E08081482F3F
:101490008A81282F30E081E090E0022E02C0880F80
:1014A000991F0A94E2F784278C933BC0A8E3B0E02D
:1014B000E8E3F0E08081482F8A81282F30E081E046
:1014C00090E0022E02C0880F991F0A94E2F7842749
:1014D0008C9327C0A5E3B0E0E5E3F0E08081482FDE
:1014E0008A81282F30E081E090E0022E02C0880F30
:1014F000991F0A94E2F784278C9313C0A2E3B0E00B
:10150000E2E3F0E08081482F8A81282F30E081E0FB
:1015100090E0022E02C0880F991F0A94E2F78427F8
:101520008C930F900F900F900F90CF91DF910895B3
:10153000DF93CF93CDB7DEB761970FB6F894DEBFD8
:101540000FBECDBF988B8F87698B0E94FC0B8F8558
:101550009889892F992780650E942B0C8F850E947E
:101560007D0C89890E947D0C0E94160C80E090E021
:10157000A0E2B1E48B879C87AD87BE876B857C85B5
:101580008D859E8520E030E04AE755E40E941F02E9
:10159000DC01CB018F839887A987BA876F81788513
:1015A00089859A8520E030E040E85FE30E942504C9
:1015B00088232CF481E090E09E838D833FC06F816F
:1015C000788589859A8520E03FEF4FE757E40E94B0
:1015D000C50318164CF56B857C858D859E8520E0AE
:1015E00030E040E251E40E941F02DC01CB01BC016B
:1015F000CD010E944900DC01CB019E838D830FC089
:1016000080E991E09C838B838B819C810197F1F72A
:101610009C838B838D819E8101979E838D838D8199
:101620009E81009769F714C06F81788589859A85B6
:101630000E944900DC01CB019E838D838D819E81B8
:101640009A83898389819A810197F1F79A838983A3
:1016500061960FB6F894DEBF0FBECDBFCF91DF917C
:101660000895DF93CF9300D00F92CDB7DEB79B8361
:101670008A830E94FC0B8A819B81892F9927806530
:101680000E942B0C8A810E947D0C0E94FC0B8A8197
:101690009B81892F992780650E94540C0E94BC0C65
:1016A00089830E94160C89810F900F900F90CF9123
:1016B000DF910895DF93CF9300D000D0CDB7DEB790
:1016C0009A8389837C836B8312C0E981FA812081AC
:1016D0008B819C81622F0E94980A89819A81019650
:1016E0009A8389838B819C8101969C838B83E9817A
:1016F000FA818081882349F78B819C8160E00E9478
:10170000980A0F900F900F900F90CF91DF9108954E
:10171000DF93CF93CDB7DEB727970FB6F894DEBF30
:101720000FBECDBF9C838B837E836D834F831A82D4
:101730008D819E810E94310B89838A81282F30E020
:101740008B819C81FC01E20FF31F898180838A8158
:101750008F5F8A838D819E8101969E838D8389818F
:10176000882321F09A818F81981710F327960FB65E
:10177000F894DEBF0FBECDBFCF91DF910895DF9308
:10178000CF93CDB7DEB7A1E2B0E0E1E2F0E0808137
:101790008E7F8C93A1E2B0E0E1E2F0E080818D7F6A
:1017A0008C93E0E2F0E082E08083A6E5B0E0E6E53D
:1017B000F0E0808184608C93CF91DF910895DF9376
:1017C000CF930F92CDB7DEB78983A6E5B0E0E6E50B
:1017D000F0E0808180648C93E2E2F0E08981880F00
:1017E0008083A6E5B0E0E6E5F0E0808184608C933C
:1017F0000F90CF91DF910895DF93CF93CDB7DEB7F0
:10180000A6E5B0E0E6E5F0E0808180628C93A6E595
:10181000B0E0E6E5F0E0808180688C93E6E5F0E0FA
:1018200080818823DCF7CF91DF910895DF93CF93F8
:10183000CDB7DEB7A6E5B0E0E6E5F0E080818068F0
:101840008C93A6E5B0E0E6E5F0E0808180618C93C2
:10185000CF91DF910895DF93CF930F92CDB7DEB78D
:101860008983E3E2F0E08981880F8083A3E2B0E01E
:10187000E3E2F0E080818E7F8C93A6E5B0E0E6E5C0
:10188000F0E080818F7D8C93A6E5B0E0E6E5F0E0A6
:10189000808180688C93E6E5F0E080818823DCF726
:1018A0000F90CF91DF910895DF93CF930F92CDB733
:1018B000DEB78983E3E2F0E08981880F8083A3E2C9
:1018C000B0E0E3E2F0E0808181608C93A6E5B0E0D7
:1018D000E6E5F0E080818F7D8C93A6E5B0E0E6E55B
:1018E000F0E0808180688C93E6E5F0E080818823D9
:1018F000DCF70F90CF91DF910895DF93CF930F9294
:10190000CDB7DEB78983E3E2F0E089818083A6E585
:10191000B0E0E6E5F0E0808180688C93E6E5F0E0F9
:1019200080818823DCF70F90CF91DF910895DF93BA
:10193000CF93CDB7DEB7E1E2F0E08081882F90E071
:10194000887F907080369105B1F7A6E5B0E0E6E5B6
:10195000F0E0808180688C93E1E2F0E08081882F64
:1019600090E0887F907080389105B1F7E3E2F0E075
:101970008081CF91DF910895DF93CF93CDB7DEB70C
:10198000A6E5B0E0E6E5F0E0808180688C93E6E5CE
:10199000F0E080818823DCF7E3E2F0E08081CF9102
:1019A000DF910895DF93CF93CDB7DEB781E06FE08D
:1019B0000E94DA0981E06FEF0E949909CF91DF91CF
:1019C0000895DF93CF93CDB7DEB763970FB6F89442
:1019D000DEBF0FBECDBF8FEF888B1F861B8ACEC0A8
:1019E0008B89882F90E0FC01E254FE4F908181E0CA
:1019F000692F40E00E9417081A8AAAC08A89882F96
:101A000090E0FC01EE53FE4F908181E0692F0E942F
:101A10001709898B8989882309F097C080E090E0B5
:101A2000A0EAB1E48B879C87AD87BE876B857C85F8
:101A30008D859E8520E030E04AE755E40E941F0234
:101A4000DC01CB018F839887A987BA876F8178855E
:101A500089859A8520E030E040E85FE30E94250414
:101A600088232CF481E090E09E838D833FC06F81BA
:101A7000788589859A8520E03FEF4FE757E40E94FB
:101A8000C50318164CF56B857C858D859E8520E0F9
:101A900030E040E251E40E941F02DC01CB01BC01B6
:101AA000CD010E944900DC01CB019E838D830FC0D4
:101AB00080E991E09C838B838B819C810197F1F776
:101AC0009C838B838D819E8101979E838D838D81E5
:101AD0009E81009769F721C06F81788589859A85F5
:101AE0000E944900DC01CB019E838D838D819E8104
:101AF0009A83898389819A810197F1F79A838983EF
:101B00000CC08A89882F90E0FC01EE53FE4F908133
:101B100081E0692F0E941709898B8989882389F3BD
:101B20008B89482F50E08A89282F30E0CA01880F1E
:101B3000991F880F991F820F931FFC01E255FE4FDA
:101B40008081888B81E08F8707C08A898F5F8A8B2D
:101B50008A89843008F452CF8B89882F90E0FC0169
:101B6000E254FE4F908181E0692F41E00E94170806
:101B70008F85882339F48B898F5F8B8B8B89843099
:101B800008F42ECF888963960FB6F894DEBF0FBE97
:101B9000CDBFCF91DF910895DF93CF93CDB7DEB75F
:101BA000E8970FB6F894DEBF0FBECDBF80E06FEFB1
:101BB0000E94DA0982E065E041E00E94170782E0B6
:101BC00066E041E00E94170782E067E041E00E9482
:101BD000170780E090E0ACE0B2E48DAB9EABAFAB1A
:101BE000B8AF6DA97EA98FA998AD20E030E04AE793
:101BF00055E40E941F02DC01CB0189AB9AABABAB71
:101C0000BCAB69A97AA98BA99CA920E030E040E887
:101C10005FE30E94250488232CF481E090E098ABD8
:101C20008FA73FC069A97AA98BA99CA920E03FEFA3
:101C30004FE757E40E94C50318164CF56DA97EA91D
:101C40008FA998AD20E030E040E251E40E941F02ED
:101C5000DC01CB01BC01CD010E944900DC01CB01BC
:101C600098AB8FA70FC080E991E09EA78DA78DA5A7
:101C70009EA50197F1F79EA78DA78FA598A901971B
:101C800098AB8FA78FA598A9009769F714C069A989
:101C90007AA98BA99CA90E944900DC01CB0198ABD1
:101CA0008FA78FA598A99CA78BA78BA59CA501970B
:101CB000F1F79CA78BA788E30E94C30F80E090E018
:101CC000A0E8BFE38FA398A7A9A7BAA76FA178A59B
:101CD00089A59AA520E030E04AE755E40E941F025A
:101CE000DC01CB018BA39CA3ADA3BEA36BA17CA104
:101CF0008DA19EA120E030E040E85FE30E94250432
:101D000088232CF481E090E09AA389A33FC06BA1C3
:101D10007CA18DA19EA120E03FEF4FE757E40E94F8
:101D2000C50318164CF56FA178A589A59AA520E0E2
:101D300030E040E251E40E941F02DC01CB01BC0113
:101D4000CD010E944900DC01CB019AA389A30FC0F9
:101D500080E991E098A38F8F8F8D98A10197F1F77B
:101D600098A38F8F89A19AA101979AA389A389A18A
:101D70009AA1009769F714C06BA17CA18DA19EA1C7
:101D80000E944900DC01CB019AA389A389A19AA1F1
:101D90009E8F8D8F8D8D9E8D0197F1F79E8F8D8FEC
:101DA0008FE00E94C30F80E090E0A0E8BFE3898F3E
:101DB0009A8FAB8FBC8F698D7A8D8B8D9C8D20E037
:101DC00030E04AE755E40E941F02DC01CB018D8B15
:101DD0009E8BAF8BB88F6D897E898F89988D20E01F
:101DE00030E040E85FE30E94250488232CF481E082
:101DF00090E09C8B8B8B3FC06D897E898F89988DFD
:101E000020E03FEF4FE757E40E94C50318164CF55A
:101E1000698D7A8D8B8D9C8D20E030E040E251E41D
:101E20000E941F02DC01CB01BC01CD010E944900D0
:101E3000DC01CB019C8B8B8B0FC080E991E09A8BEE
:101E4000898B89899A890197F1F79A8B898B8B897C
:101E50009C8901979C8B8B8B8B899C89009769F758
:101E600014C06D897E898F89988D0E944900DC019C
:101E7000CB019C8B8B8B8B899C89988B8F878F85D3
:101E800098890197F1F7988B8F8781E00E94C30FA3
:101E900080E090E0A0E0B0E48B879C87AD87BE87B0
:101EA0006B857C858D859E8520E030E04AE755E492
:101EB0000E941F02DC01CB018F839887A987BA8714
:101EC0006F81788589859A8520E030E040E85FE37E
:101ED0000E94250488232CF481E090E09E838D836A
:101EE0003FC06F81788589859A8520E03FEF4FE775
:101EF00057E40E94C50318164CF56B857C858D85CB
:101F00009E8520E030E040E251E40E941F02DC01A7
:101F1000CB01BC01CD010E944900DC01CB019E83B5
:101F20008D830FC080E991E09C838B838B819C81A2
:101F30000197F1F79C838B838D819E8101979E830E
:101F40008D838D819E81009769F714C06F8178859C
:101F500089859A850E944900DC01CB019E838D838F
:101F60008D819E819A83898389819A810197F1F776
:101F70009A838983E8960FB6F894DEBF0FBECDBF73
:101F8000CF91DF910895DF93CF93CDB7DEB72F9731
:101F90000FB6F894DEBF0FBECDBF8F8782E065E03D
:101FA00040E00E94170882E066E040E00E941708C7
:101FB00080E06F850E94990982E067E041E00E941D
:101FC000170880E090E0A0E8BFE38B879C87AD878F
:101FD000BE876B857C858D859E8520E030E04AE755
:101FE00055E40E941F02DC01CB018F839887A987EB
:101FF000BA876F81788589859A8520E030E040E84E
:102000005FE30E94250488232CF481E090E09E8306
:102010008D833FC06F81788589859A8520E03FEF69
:102020004FE757E40E94C50318164CF56B857C8575
:102030008D859E8520E030E040E251E40E941F0241
:10204000DC01CB01BC01CD010E944900DC01CB01C8
:102050009E838D830FC080E991E09C838B838B816D
:102060009C810197F1F79C838B838D819E810197E1
:102070009E838D838D819E81009769F714C06F8147
:10208000788589859A850E944900DC01CB019E8371
:102090008D838D819E819A83898389819A8101971D
:1020A000F1F79A83898382E067E040E00E94170895
:1020B0002F960FB6F894DEBF0FBECDBFCF91DF9144
:1020C0000895DF93CF93CDB7DEB72F970FB6F8946F
:1020D000DEBF0FBECDBF8F8782E065E041E00E948A
:1020E000170882E066E040E00E94170880E06F85F4
:1020F0000E94990982E067E041E00E94170880E0B1
:1021000090E0A0E8BFE38B879C87AD87BE876B8597
:102110007C858D859E8520E030E04AE755E40E946D
:102120001F02DC01CB018F839887A987BA876F8153
:10213000788589859A8520E030E040E85FE30E9459
:10214000250488232CF481E090E09E838D833FC09A
:102150006F81788589859A8520E03FEF4FE757E4C6
:102160000E94C50318164CF56B857C858D859E8570
:1021700020E030E040E251E40E941F02DC01CB018C
:10218000BC01CD010E944900DC01CB019E838D83FF
:102190000FC080E991E09C838B838B819C810197A8
:1021A000F1F79C838B838D819E8101979E838D8324
:1021B0008D819E81009769F714C06F81788589852C
:1021C0009A850E944900DC01CB019E838D838D811D
:1021D0009E819A83898389819A810197F1F79A83F5
:1021E000898382E067E040E00E9417082F960FB6CF
:1021F000F894DEBF0FBECDBFCF91DF910895DF937E
:10220000CF9300D00F92CDB7DEB79B838A8319821C
:102210000EC08981282F30E08A819B81FC01E20F6A
:10222000F31F80810E94611089818F5F898389817A
:10223000282F30E08A819B81FC01E20FF31F80810F
:10224000882339F70F900F900F90CF91DF91089569
:10225000DF93CF9300D000D0CDB7DEB789836A83F8
:102260008981282F30E03C832B838B819C810097D0
:1022700031F02B813C812130310531F009C08A8158
:1022800080580E94C30F04C08A8180540E94C30FEB
:102290000F900F900F900F90CF91DF910895DF93E3
:1022A000CF9300D000D0CDB7DEB78A837C836B8319
:1022B0008A81882F90E00896880F991F880F991FB0
:1022C000880F991F0E94C30F19820EC08981282F81
:1022D00030E08B819C81FC01E20FF31F80810E9422
:1022E000611089818F5F89838981883078F30F90AD
:1022F0000F900F900F90CF91DF910895DF93CF93C0
:10230000CDB7DEB72F970FB6F894DEBF0FBECDBFA7
:102310008F8782E065E041E00E94170882E066E076
:1023200040E00E9417088F85982F905D80E0692F0C
:102330000E94990982E067E041E00E94170880E06E
:1023400090E0A0E8BFE38B879C87AD87BE876B8555
:102350007C858D859E8520E030E04AE755E40E942B
:102360001F02DC01CB018F839887A987BA876F8111
:10237000788589859A8520E030E040E85FE30E9417
:10238000250488232CF481E090E09E838D833FC058
:102390006F81788589859A8520E03FEF4FE757E484
:1023A0000E94C50318164CF56B857C858D859E852E
:1023B00020E030E040E251E40E941F02DC01CB014A
:1023C000BC01CD010E944900DC01CB019E838D83BD
:1023D0000FC080E991E09C838B838B819C81019766
:1023E000F1F79C838B838D819E8101979E838D83E2
:1023F0008D819E81009769F714C06F8178858985EA
:102400009A850E944900DC01CB019E838D838D81DA
:102410009E819A83898389819A810197F1F79A83B2
:10242000898382E067E040E00E9417082F960FB68C
:10243000F894DEBF0FBECDBFCF91DF910895DF933B
:10244000CF93CDB7DEB72D970FB6F894DEBF0FBE92
:10245000CDBF6A877B878C879D8781E090E0A0E075
:10246000B0E08E839F83A887B9878A859B85AC85DA
:10247000BD858A839B83AC83BD8324C08E819F816D
:10248000A885B9852AE030E040E050E0BC01CD01EC
:102490000E946722DC01CB018E839F83A887B987C6
:1024A0008A819B81AC81BD812AE030E040E050E030
:1024B000BC01CD010E948622DA01C9018A839B8377
:1024C000AC83BD838A819B81AC81BD818A309105BB
:1024D000A105B10598F636C08A859B85AC85BD857A
:1024E0002E813F8148855985BC01CD010E948622FD
:1024F000DA01C901898389810E947E118A859B85C1
:10250000AC85BD852E813F8148855985BC01CD01B3
:102510000E948622DC01CB018A879B87AC87BD871E
:102520008E819F81A885B9852AE030E040E050E0A7
:10253000BC01CD010E948622DA01C9018E839F83EE
:10254000A887B9878E819F81A885B9850097A10545
:10255000B10511F62D960FB6F894DEBF0FBECDBFB4
:10256000CF91DF910895DF93CF93CDB7DEB781E0B0
:102570000E94C30F80E20E94611080E060E00E9430
:102580002811CF91DF910895DF93CF93CDB7DEB7B8
:10259000E6970FB6F894DEBF0FBECDBFA2E3B0E062
:1025A000E2E3F0E0808180628C9380E090E0A6E13D
:1025B000B3E489AB9AABABABBCAB69A97AA98BA9E5
:1025C0009CA92BEA3AEA4AEA50E40E941F02DC0185
:1025D000CB018DA79EA7AFA7B8AB6DA57EA58FA594
:1025E00098A920E030E040E85FE30E9425048823BA
:1025F0001CF481E08CA791C06DA57EA58FA598A93C
:1026000020E030E04FE753E40E94C50318160CF0B9
:102610007BC069A97AA98BA99CA920E030E04AE790
:1026200054E40E941903DC01CB0188A799A7AAA74B
:10263000BBA768A579A58AA59BA520E030E04AE75D
:1026400055E40E941F02DC01CB018CA39DA3AEA325
:10265000BFA36CA17DA18EA19FA120E030E040E846
:102660005FE30E94250488232CF481E090E09BA383
:102670008AA33FC06CA17DA18EA19FA120E03FEF66
:102680004FE757E40E94C50318164CF568A579A5D5
:102690008AA59BA520E030E040E251E40E941F02A1
:1026A000DC01CB01BC01CD010E944900DC01CB0162
:1026B0009BA38AA30FC080E991E099A388A388A176
:1026C00099A10197F1F799A388A38AA19BA10197EA
:1026D0009BA38AA38AA19BA1009769F724C06CA140
:1026E0007DA18EA19FA10E944900DC01CB019BA38B
:1026F0008AA38AA19BA19F8F8E8F8E8D9F8D01971C
:10270000F1F79F8F8E8F0FC06DA57EA58FA598A91D
:102710000E944900DC01CB018CA78CA58D8F8D8D8B
:102720008A95F1F78D8FA2E3B0E0E2E3F0E08081DB
:102730008F7D8C93A5E3B0E0E5E3F0E080818160DC
:102740008C9381E00E94FF1C8EAB82E00E94FF1CF4
:102750008DAB8EA9813009F079C08DA9882309F04D
:1027600075C00E94C31480E090E8ABE3B4E4898FA5
:102770009A8FAB8FBC8F698D7A8D8B8D9C8D20E06D
:1027800030E04AE755E40E941F02DC01CB018D8B4B
:102790009E8BAF8BB88F6D897E898F89988D20E055
:1027A00030E040E85FE30E94250488232CF481E0B8
:1027B00090E09C8B8B8B3FC06D897E898F89988D33
:1027C00020E03FEF4FE757E40E94C50318164CF591
:1027D000698D7A8D8B8D9C8D20E030E040E251E454
:1027E0000E941F02DC01CB01BC01CD010E94490007
:1027F000DC01CB019C8B8B8B0FC080E991E09A8B25
:10280000898B89899A890197F1F79A8B898B8B89B2
:102810009C8901979C8B8B8B8B899C89009769F78E
:1028200094C06D897E898F89988D0E944900DC0152
:10283000CB019C8B8B8B8B899C89988B8F878F8509
:1028400098890197F1F7988B8F877FC08EA988238D
:1028500009F079C08DA9813009F075C00E94E61495
:1028600080E090E8ABE3B4E48B879C87AD87BE87BC
:102870006B857C858D859E8520E030E04AE755E4B8
:102880000E941F02DC01CB018F839887A987BA873A
:102890006F81788589859A8520E030E040E85FE3A4
:1028A0000E94250488232CF481E090E09E838D8390
:1028B0003FC06F81788589859A8520E03FEF4FE79B
:1028C00057E40E94C50318164CF56B857C858D85F1
:1028D0009E8520E030E040E251E40E941F02DC01CE
:1028E000CB01BC01CD010E944900DC01CB019E83DC
:1028F0008D830FC080E991E09C838B838B819C81C9
:102900000197F1F79C838B838D819E8101979E8334
:102910008D838D819E81009769F717C06F817885BF
:1029200089859A850E944900DC01CB019E838D83B5
:102930008D819E819A83898389819A810197F1F79C
:102940009A83898302C00E940915E6960FB6F8940F
:10295000DEBF0FBECDBFCF91DF910895DF93CF9340
:10296000CDB7DEB7A1E3B0E0E1E3F0E08081806CB9
:102970008C93A4E3B0E0E4E3F0E0808188618C9381
:10298000CF91DF910895DF93CF93CDB7DEB7A2E368
:10299000B0E0E2E3F0E0808180648C93A2E3B0E0F9
:1029A000E2E3F0E080818F778C93A5E3B0E0E5E38C
:1029B000F0E0808180618C93A5E3B0E0E5E3F0E096
:1029C0008081877F8C93CF91DF910895DF93CF93A0
:1029D000CDB7DEB7A2E3B0E0E2E3F0E0808180684B
:1029E0008C93A2E3B0E0E2E3F0E080818F7B8C93F4
:1029F000A5E3B0E0E5E3F0E080818F7E8C93A5E372
:102A0000B0E0E5E3F0E0808188608C93CF91DF91C6
:102A10000895DF93CF93CDB7DEB7A2E3B0E0E2E352
:102A2000F0E0808180688C93A2E3B0E0E2E3F0E024
:102A300080818F7B8C93A5E3B0E0E5E3F0E08081BB
:102A400080618C93A5E3B0E0E5E3F0E08081877FCF
:102A50008C93CF91DF910895DF93CF93CDB7DEB7FD
:102A6000AFE4B0E0EFE4F0E080818E7F8C93AFE4E0
:102A7000B0E0EFE4F0E080818D7F8C93AEE4B0E0D5
:102A8000EEE4F0E08081877F8C93AEE4B0E0EEE48A
:102A9000F0E080818F7E8C93AEE4B0E0EEE4F0E075
:102AA00080818E7F8C93AEE4B0E0EEE4F0E0808134
:102AB0008D7F8C93AEE4B0E0EEE4F0E08081846042
:102AC0008C93CF91DF910895DF93CF93CDB7DEB78D
:102AD000AFE4B0E0EFE4F0E080818E7F8C93AFE470
:102AE000B0E0EFE4F0E0808182608C93AEE4B0E08F
:102AF000EEE4F0E0808188608C93AEE4B0E0EEE438
:102B0000F0E0808180618C93AFE4B0E0EFE4F0E02E
:102B100080818F7B8C93AFE4B0E0EFE4F0E08081C4
:102B200080688C93E6E4F0E08FE19EE491838083FB
:102B3000AEE4B0E0EEE4F0E080818E7F8C93AEE412
:102B4000B0E0EEE4F0E0808182608C93AEE4B0E02F
:102B5000EEE4F0E080818B7F8C93CF91DF9108953C
:102B6000DF93CF93CDB7DEB7AEE4B0E0EEE4F0E0B4
:102B7000808180648C93A9E5B0E0E9E5F0E0808194
:102B800080628C93CF91DF910895DF93CF9300D033
:102B90000F92CDB7DEB789838981282F30E03B8340
:102BA0002A838A819B81009731F02A813B812130E1
:102BB000310549F00FC0AEE4B0E0EEE4F0E0808112
:102BC0008F7B8C9307C0AEE4B0E0EEE4F0E0808150
:102BD00080648C930F900F900F90CF91DF910895A8
:102BE000DF93CF93CDB7DEB7E6E4F0E0808191814B
:102BF000CF91DF910895DF93CF93CDB7DEB7A9E5ED
:102C0000B0E0E9E5F0E080818F7D8C93CF91DF919A
:102C10000895DF93CF9300D0CDB7DEB79A83898331
:102C200089819A819093C7018093C6010F900F907C
:102C3000CF91DF9108951F920F920FB60F9211243A
:102C40002F933F934F935F936F937F938F939F93B4
:102C5000AF93BF93EF93FF93DF93CF93CDB7DEB7DF
:102C60008091C6019091C701009729F0E091C601BB
:102C7000F091C7010995CF91DF91FF91EF91BF913D
:102C8000AF919F918F917F916F915F914F913F9104
:102C90002F910F900FBE0F901F901895DF93CF9339
:102CA00000D00F92CDB7DEB783E390E09B838A8399
:102CB00080E88983E9E2F0E08A818083E0E4F0E063
:102CC0008A819B81892F99278083ABE2B0E0EBE278
:102CD000F0E080818D7F8C93ABE2B0E0EBE2F0E03E
:102CE00080818E7F8C93AAE2B0E0EAE2F0E08081FE
:102CF00080618C93AAE2B0E0EAE2F0E08081886033
:102D00008C93898182608983898184608983AAE226
:102D1000B0E0EAE2F0E080818B7F8C9389818F7B49
:102D2000898389818F7E898389818F7D8983898148
:102D300088608983E0E4F0E0898180830F900F90C0
:102D40000F90CF91DF910895DF93CF9300D0CDB74F
:102D5000DEB79A838983EBE2F0E0808182958695E5
:102D60008770882F90E0817090700097A1F3ECE25B
:102D7000F0E0898180830F900F90CF91DF910895CB
:102D8000DF93CF93CDB7DEB7EBE2F0E0808188230D
:102D9000DCF7ECE2F0E08081882F90E0CF91DF91CA
:102DA0000895DF93CF93CDB7DEB7A1E3B0E0E1E3C1
:102DB000F0E0808180628C93A1E3B0E0E1E3F0E099
:102DC00080818B7F8C93A2E3B0E0E2E3F0E080812E
:102DD00080628C93A2E3B0E0E2E3F0E080818E7F3A
:102DE0008C93CF91DF910895DF93CF93CDB7DEB76A
:102DF000AA970FB6F894DEBF0FBECDBF8091CA016F
:102E0000813009F0D1C1ECE4F0E0808191819093B0
:102E1000C9018093C8011092CA018091C8019091A4
:102E2000C90196958795CC01A0E0B0E0BC01CD0129
:102E30000E94A904DC01CB01BC01CD0128E23EE7E0
:102E40004CE05FE30E941F02DC01CB018093CB01C9
:102E50009093CC01A093CD01B093CE018091CB0192
:102E60009091CC01A091CD01B091CE01BC01CD01DA
:102E700020E030E048E453E40E94250488230CF06D
:102E800000C180E690E00E94FF1080E090E0AAEF91
:102E9000B3E48FA398A7A9A7BAA76FA178A589A51E
:102EA0009AA520E030E04AE755E40E941F02DC01C9
:102EB000CB018BA39CA3ADA3BEA36BA17CA18DA1D1
:102EC0009EA120E030E040E85FE30E9425048823D3
:102ED0002CF481E090E09AA389A33FC06BA17CA170
:102EE0008DA19EA120E03FEF4FE757E40E94C5036C
:102EF00018164CF56FA178A589A59AA520E030E0B9
:102F000040E251E40E941F02DC01CB01BC01CD0173
:102F10000E944900DC01CB019AA389A30FC080E97C
:102F200091E098A38F8F8F8D98A10197F1F798A3C7
:102F30008F8F89A19AA101979AA389A389A19AA1A8
:102F4000009769F714C06BA17CA18DA19EA10E947E
:102F50004900DC01CB019AA389A389A19AA19E8F84
:102F60008D8F8D8D9E8D0197F1F79E8F8D8F0E9495
:102F7000B31281E090E00E94A4168091CB01909161
:102F8000CC01A091CD01B091CE01BC01CD010E9438
:102F90004900DC01CB010E94A4160E94EA1880E0DF
:102FA00090E0AAEFB3E4898F9A8FAB8FBC8F698DC5
:102FB0007A8D8B8D9C8D20E030E04AE755E40E94AD
:102FC0001F02DC01CB018D8B9E8BAF8BB88F6D897F
:102FD0007E898F89988D20E030E040E85FE30E9491
:102FE000250488232CF481E090E09C8B8B8B3FC0E0
:102FF0006D897E898F89988D20E03FEF4FE757E4F8
:103000000E94C50318164CF5698D7A8D8B8D9C8DA9
:1030100020E030E040E251E40E941F02DC01CB01DD
:10302000BC01CD010E944900DC01CB019C8B8B8B44
:103030000FC080E991E09A8B898B89899A890197E1
:10304000F1F79A8B898B8B899C8901979C8B8B8B51
:103050008B899C89009769F714C06D897E898F8957
:10306000988D0E944900DC01CB019C8B8B8B8B8956
:103070009C89988B8F878F8598890197F1F7988B1A
:103080008F870E94B31280E062E00E9428118BE6D5
:1030900090E00E94FF1081E067E00E94281180917B
:1030A000CB019091CC01A091CD01B091CE01BC019A
:1030B000CD010E944900DC01CB01BC01CD010E9481
:1030C0001F1280E090E0AAEFB3E48B879C87AD8766
:1030D000BE876B857C858D859E8520E030E04AE744
:1030E00055E40E941F02DC01CB018F839887A987DA
:1030F000BA876F81788589859A8520E030E040E83D
:103100005FE30E94250488232CF481E090E09E83F5
:103110008D833FC06F81788589859A8520E03FEF58
:103120004FE757E40E94C50318164CF56B857C8564
:103130008D859E8520E030E040E251E40E941F0230
:10314000DC01CB01BC01CD010E944900DC01CB01B7
:103150009E838D830FC080E991E09C838B838B815C
:103160009C810197F1F79C838B838D819E810197D0
:103170009E838D838D819E81009769F722C06F8128
:10318000788589859A850E944900DC01CB019E8360
:103190008D838D819E819A83898389819A8101970C
:1031A000F1F79A8389830DC08091CA01882349F47D
:1031B000ECE4F0E01182108281E08093CA010E9469
:1031C000B312AA960FB6F894DEBF0FBECDBFCF9153
:1031D000DF9108950F931F93DF93CF93CDB7DEB7A1
:1031E000C455D0400FB6F894DEBF0FBECDBF0E94CD
:1031F000C314FE01EF5AFF4F80E090E0AAEFB3E462
:1032000080839183A283B3838E01035B1F4FFE01F2
:10321000EF5AFF4F608171818281938120E030E01D
:103220004AE755E40E941F02DC01CB01F8018083CC
:103230009183A283B383FE01E35BFF4F60817181C1
:103240008281938120E030E040E85FE30E94250422
:10325000882344F4FE01E55BFF4F81E090E0918319
:10326000808364C0FE01E35BFF4F608171818281D6
:10327000938120E03FEF4FE757E40E94C503181603
:103280000CF043C0FE01EF5AFF4F608171818281D3
:10329000938120E030E040E251E40E941F02DC0113
:1032A000CB018E01055B1F4FBC01CD010E9449007F
:1032B000DC01CB01F801918380831FC0FE01E75B35
:1032C000FF4F80E991E091838083FE01E75BFF4F30
:1032D000808191810197F1F7FE01E75BFF4F9183B8
:1032E0008083DE01A55BBF4FFE01E55BFF4F808160
:1032F0009181019711969C938E93FE01E55BFF4FA0
:10330000808191810097D1F627C08E01055B1F4F08
:10331000FE01E35BFF4F60817181828193810E9496
:103320004900DC01CB01F80191838083DE01A95BB8
:10333000BF4FFE01E55BFF4F808191818D939C9390
:10334000FE01E95BFF4F808191810197F1F7FE015A
:10335000E95BFF4F918380830E940915FE01ED5BBD
:10336000FF4F80E090E0AAEFB3E480839183A283D3
:10337000B3838E01015C1F4FFE01ED5BFF4F608147
:1033800071818281938120E030E04AE755E40E9418
:103390001F02DC01CB01F80180839183A283B383F8
:1033A000FE01FF96608171818281938120E030E08F
:1033B00040E85FE30E94250488232CF481E090E03C
:1033C0009EAF8DAF46C0FE01FF9660817181828104
:1033D000938120E03FEF4FE757E40E94C5031816A2
:1033E00064F5FE01ED5BFF4F608171818281938105
:1033F00020E030E040E251E40E941F02DC01CB01FA
:10340000BC01CD010E944900DC01CB019EAF8DAF14
:103410000FC080E991E09CAF8BAF8BAD9CAD019765
:10342000F1F79CAF8BAF8DAD9EAD01979EAF8DAF89
:103430008DAD9EAD009769F716C0FE01FF966081C5
:103440007181828193810E944900DC01CB019EAF92
:103450008DAF8DAD9EAD9AAF89AF89AD9AAD019715
:10346000F1F79AAF89AF0E94E61480E090E0AAEFEE
:10347000B3E48DAB9EABAFABB8AF6DA97EA98FA9FE
:1034800098AD20E030E04AE755E40E941F02DC01DD
:10349000CB0189AB9AABABABBCAB69A97AA98BA9C1
:1034A0009CA920E030E040E85FE30E9425048823E7
:1034B0002CF481E090E098AB8FA73FC069A97AA96E
:1034C0008BA99CA920E03FEF4FE757E40E94C5037A
:1034D00018164CF56DA97EA98FA998AD20E030E0B3
:1034E00040E251E40E941F02DC01CB01BC01CD018E
:1034F0000E944900DC01CB0198AB8FA70FC080E987
:1035000091E09EA78DA78DA59EA50197F1F79EA797
:103510008DA78FA598A9019798AB8FA78FA598A97C
:10352000009769F714C069A97AA98BA99CA90E9480
:103530004900DC01CB0198AB8FA78FA598A99CA768
:103540008BA78BA59CA50197F1F79CA78BA70E9441
:10355000091580E090E0AAEFB3E48FA398A7A9A78C
:10356000BAA76FA178A589A59AA520E030E04AE71F
:1035700055E40E941F02DC01CB018BA39CA3ADA3E9
:10358000BEA36BA17CA18DA19EA120E030E040E80C
:103590005FE30E94250488232CF481E090E09AA345
:1035A00089A33FC06BA17CA18DA19EA120E03FEF2C
:1035B0004FE757E40E94C50318164CF56FA178A594
:1035C00089A59AA520E030E040E251E40E941F0264
:1035D000DC01CB01BC01CD010E944900DC01CB0123
:1035E0009AA389A30FC080E991E098A38F8F8F8D54
:1035F00098A10197F1F798A38F8F89A19AA10197BC
:103600009AA389A389A19AA1009769F714C06BA115
:103610007CA18DA19EA10E944900DC01CB019AA34F
:1036200089A389A19AA19E8F8D8F8D8D9E8D0197E3
:10363000F1F79E8F8D8F0E94E61480E090E0AAEF54
:10364000B3E4898F9A8FAB8FBC8F698D7A8D8B8D08
:103650009C8D20E030E04AE755E40E941F02DC0127
:10366000CB018D8B9E8BAF8BB88F6D897E898F89B7
:10367000988D20E030E040E85FE30E942504882335
:103680002CF481E090E09C8B8B8B3FC06D897E8910
:103690008F89988D20E03FEF4FE757E40E94C503E4
:1036A00018164CF5698D7A8D8B8D9C8D20E030E05D
:1036B00040E251E40E941F02DC01CB01BC01CD01BC
:1036C0000E944900DC01CB019C8B8B8B0FC080E9F1
:1036D00091E09A8B898B89899A890197F1F79A8B66
:1036E000898B8B899C8901979C8B8B8B8B899C897F
:1036F000009769F714C06D897E898F89988D0E9423
:103700004900DC01CB019C8B8B8B8B899C89988B2E
:103710008F878F8598890197F1F7988B8F870E9403
:10372000091580E090E0AAEFB3E48B879C87AD8712
:10373000BE876B857C858D859E8520E030E04AE7DD
:1037400055E40E941F02DC01CB018F839887A98773
:10375000BA876F81788589859A8520E030E040E8D6
:103760005FE30E94250488232CF481E090E09E838F
:103770008D833FC06F81788589859A8520E03FEFF2
:103780004FE757E40E94C50318164CF56B857C85FE
:103790008D859E8520E030E040E251E40E941F02CA
:1037A000DC01CB01BC01CD010E944900DC01CB0151
:1037B0009E838D830FC080E991E09C838B838B81F6
:1037C0009C810197F1F79C838B838D819E8101976A
:1037D0009E838D838D819E81009769F714C06F81D0
:1037E000788589859A850E944900DC01CB019E83FA
:1037F0008D838D819E819A83898389819A810197A6
:10380000F1F79A8389830E94C3140E940915CC5A48
:10381000DF4F0FB6F894DEBF0FBECDBFCF91DF9163
:103820001F910F910895DF93CF93CDB7DEB7A5E534
:10383000B0E0E5E5F0E0808181608C93A5E5B0E043
:10384000E5E5F0E080818D7F8C93ABE5B0E0EBE5C2
:10385000F0E0808181608C93CF91DF910895DF93B8
:10386000CF93CDB7DEB7AFE5B0E0EFE5F0E0808114
:1038700080688C93CF91DF910895DF93CF9300D030
:103880000F92CDB7DEB789837B836A838981882FC6
:1038900090E0880F991FFC01E153FE4F8A819B81C4
:1038A000918380830F900F900F90CF91DF910895B7
:1038B0001F920F920FB60F9211242F933F934F93A5
:1038C0005F936F937F938F939F93AF93BF93EF9388
:1038D000FF93DF93CF93CDB7DEB78091CF01909167
:1038E000D001009729F0E091CF01F091D001099526
:1038F000CF91DF91FF91EF91BF91AF919F918F9108
:103900007F916F915F914F913F912F910F900FBEDB
:103910000F901F9018951F920F920FB60F921124BF
:103920002F933F934F935F936F937F938F939F93C7
:10393000AF93BF93EF93FF93DF93CF93CDB7DEB7F2
:103940008091D1019091D201009729F0E091D101AD
:10395000F091D2010995CF91DF91FF91EF91BF9145
:10396000AF919F918F917F916F915F914F913F9117
:103970002F910F900FBE0F901F9018951F920F92CE
:103980000FB60F9211242F933F934F935F936F9332
:103990007F938F939F93AF93BF93EF93FF93DF93A7
:1039A000CF93CDB7DEB78091D3019091D40100972A
:1039B00029F0E091D301F091D4010995CF91DF91E5
:1039C000FF91EF91BF91AF919F918F917F916F91F7
:1039D0005F914F913F912F910F900FBE0F901F90CD
:1039E0001895DF93CF93CDB7DEB7A1E3B0E0E1E365
:1039F000F0E08081877E8C93CF91DF910895DF93F3
:103A0000CF9300D000D0CDB7DEB789838981282F2E
:103A100030E03C832B838B819C818130910531F098
:103A20002B813C812230310559F013C0E0E3F0E0F6
:103A30008081869586958695382F31703A830AC0A5
:103A4000E0E3F0E0808182958F70982F91709A83E7
:103A500001C01A828A810F900F900F900F90CF9122
:103A6000DF910895DF93CF93CDB7DEB7A1E3B0E048
:103A7000E1E3F0E080818B7F8C93A5E5B0E0E5E5A4
:103A8000F0E0808181608C93A5E5B0E0E5E5F0E0B1
:103A900080818D7F8C93ABE5B0E0EBE5F0E0808139
:103AA00080648C93AFE5B0E0EFE5F0E08081806862
:103AB0008C93CF91DF9108950F931F93DF93CF9352
:103AC000CDB7DEB7CC56D0400FB6F894DEBF0FBEF0
:103AD000CDBFA4E3B0E0E4E3F0E0808181608C93AB
:103AE000A5E3B0E0E5E3F0E080818E7F8C93FE01FA
:103AF000E859FF4F10820E942F1C0E94131C24EFD4
:103B000036E180E0B9010E943D1C0E94321D0E94F6
:103B1000CC0D0E942C150E94D1160E944E16A1E3D6
:103B2000B0E0E1E3F0E080818E7F8C93A1E3B0E030
:103B3000E1E3F0E0808182608C930E94F11C0E949E
:103B4000AE140E94D20C0E940915FE01E759FF4FE6
:103B500081E38083FE01E759FF4F82E38183FE0109
:103B6000E759FF4F83E38283FE01E759FF4F84E368
:103B70008383FE01E959FF4F8FEF8083FE01EA59ED
:103B8000FF4F83E08083FE01EB59FF4F81E080838C
:103B900088E790E00E94FF10FE01E15AFF4F80E0AD
:103BA00090E0AAEFB3E480839183A283B3838E0174
:103BB000055A1F4FFE01E15AFF4F608171818281DA
:103BC000938120E030E04AE755E40E941F02DC01C7
:103BD000CB01F80180839183A283B383FE01E55A70
:103BE000FF4F608171818281938120E030E040E865
:103BF0005FE30E942504882344F4FE01E75AFF4F47
:103C000081E090E09183808364C0FE01E55AFF4F1C
:103C1000608171818281938120E03FEF4FE757E41B
:103C20000E94C50318160CF043C0FE01E15AFF4F75
:103C3000608171818281938120E030E040E251E433
:103C40000E941F02DC01CB018E01075A1F4FBC01ED
:103C5000CD010E944900DC01CB01F80191838083F2
:103C60001FC0FE01E95AFF4F80E991E091838083F4
:103C7000FE01E95AFF4F808191810197F1F7FE0122
:103C8000E95AFF4F91838083DE01A75ABF4FFE019F
:103C9000E75AFF4F80819181019711969C938E93F3
:103CA000FE01E75AFF4F808191810097D1F627C02E
:103CB0008E01075A1F4FFE01E55AFF4F6081718147
:103CC000828193810E944900DC01CB01F80191833C
:103CD0008083DE01AB5ABF4FFE01E75AFF4F808160
:103CE00091818D939C93FE01EB5AFF4F80819181CE
:103CF0000197F1F7FE01EB5AFF4F9183808381E03A
:103D00000E94C30FFE01ED59FF4F11821082FE0188
:103D1000EB59FF4F8081882309F457C0FE01EB590E
:103D2000FF4F1082FE01E959FF4F8FEF8083FE01A4
:103D3000ED59FF4F118210823FC00E94E10CFE013D
:103D4000E959FF4F8083FE01E959FF4F80818F3F82
:103D5000A1F3FE01ED59FF4F20813181CE0187593A
:103D60009F4FFC01E20FF31F9081FE01E959FF4FC5
:103D70008081981769F0DE01AB59BF4FFE01EB5906
:103D8000FF4F80818F5F8C938AE20E94611003C095
:103D90008AE20E946110FE01E959FF4F8FEF808394
:103DA000DE01AD59BF4FFE01ED59FF4F808191817A
:103DB000019611969C938E93FE01ED59FF4F8081E1
:103DC0009181843091050CF4BECFFE01EB59FF4F79
:103DD0008081882309F475C2DE01AA59BF4FFE0114
:103DE000EA59FF4F808181508C9387E890E00E94D0
:103DF000FF10FE01EF5AFF4F80E090E0AAEFB4E41D
:103E000080839183A283B3838E01035B1F4FFE01E6
:103E1000EF5AFF4F608171818281938120E030E011
:103E20004AE755E40E941F02DC01CB01F8018083C0
:103E30009183A283B383FE01E35BFF4F60817181B5
:103E40008281938120E030E040E85FE30E94250416
:103E5000882344F4FE01E55BFF4F81E090E091830D
:103E6000808364C0FE01E35BFF4F608171818281CA
:103E7000938120E03FEF4FE757E40E94C5031816F7
:103E80000CF043C0FE01EF5AFF4F608171818281C7
:103E9000938120E030E040E251E40E941F02DC0107
:103EA000CB018E01055B1F4FBC01CD010E94490073
:103EB000DC01CB01F801918380831FC0FE01E75B29
:103EC000FF4F80E991E091838083FE01E75BFF4F24
:103ED000808191810197F1F7FE01E75BFF4F9183AC
:103EE0008083DE01A55BBF4FFE01E55BFF4F808154
:103EF0009181019711969C938E93FE01E55BFF4F94
:103F0000808191810097D1F627C08E01055B1F4FFC
:103F1000FE01E35BFF4F60817181828193810E948A
:103F20004900DC01CB01F80191838083DE01A95BAC
:103F3000BF4FFE01E55BFF4F808191818D939C9384
:103F4000FE01E95BFF4F808191810197F1F7FE014E
:103F5000E95BFF4F9183808381E00E94C30FFE01E4
:103F6000EA59FF4F8081882309F0ABC1FE01EA596D
:103F7000FF4F83E0808381E990E00E94FF10FE0103
:103F8000ED5BFF4F80E090E0AAE7B4E4808391838B
:103F9000A283B3838E01015C1F4FFE01ED5BFF4FD7
:103FA000608171818281938120E030E04AE755E4AD
:103FB0000E941F02DC01CB01F80180839183A28360
:103FC000B383FE01FF96608171818281938120E03D
:103FD00030E040E85FE30E94250488232CF481E070
:103FE00090E09EAF8DAF46C0FE01FF96608171816B
:103FF0008281938120E03FEF4FE757E40E94C503A1
:10400000181664F5FE01ED5BFF4F608171818281BE
:10401000938120E030E040E251E40E941F02DC0185
:10402000CB01BC01CD010E944900DC01CB019EAF58
:104030008DAF0FC080E991E09CAF8BAF8BAD9CAD95
:104040000197F1F79CAF8BAF8DAD9EAD01979EAF01
:104050008DAF8DAD9EAD009769F716C0FE01FF963E
:1040600060817181828193810E944900DC01CB01D2
:104070009EAF8DAF8DAD9EAD9AAF89AF89AD9AAD34
:104080000197F1F79AAF89AF81E00E94C30FFE015B
:10409000ED59FF4F81E090E09183808309C1FE01DB
:1040A000ED59FF4F808191818A30910544F4FE01E2
:1040B000ED59FF4F8081805D0E94611006C081E351
:1040C0000E94611080E30E94611080E090E0AAEFFE
:1040D000B3E48DAB9EABAFABB8AF6DA97EA98FA992
:1040E00098AD20E030E04AE755E40E941F02DC0171
:1040F000CB0189AB9AABABABBCAB69A97AA98BA955
:104100009CA920E030E040E85FE30E94250488237A
:104110002CF481E090E098AB8FA73FC069A97AA901
:104120008BA99CA920E03FEF4FE757E40E94C5030D
:1041300018164CF56DA97EA98FA998AD20E030E046
:1041400040E251E40E941F02DC01CB01BC01CD0121
:104150000E944900DC01CB0198AB8FA70FC080E91A
:1041600091E09EA78DA78DA59EA50197F1F79EA72B
:104170008DA78FA598A9019798AB8FA78FA598A910
:10418000009769F714C069A97AA98BA99CA90E9414
:104190004900DC01CB0198AB8FA78FA598A99CA7FC
:1041A0008BA78BA59CA50197F1F79CA78BA781E016
:1041B0000E94C30F80E090E0AAEFB3E48FA398A71A
:1041C000A9A7BAA76FA178A589A59AA520E030E094
:1041D0004AE755E40E941F02DC01CB018BA39CA39C
:1041E000ADA3BEA36BA17CA18DA19EA120E030E078
:1041F00040E85FE30E94250488232CF481E090E0EE
:104200009AA389A33FC06BA17CA18DA19EA120E0B0
:104210003FEF4FE757E40E94C50318164CF56FA116
:1042200078A589A59AA520E030E040E251E40E94FB
:104230001F02DC01CB01BC01CD010E944900DC0161
:10424000CB019AA389A30FC080E991E098A38F8F37
:104250008F8D98A10197F1F798A38F8F89A19AA1CB
:1042600001979AA389A389A19AA1009769F714C01D
:104270006BA17CA18DA19EA10E944900DC01CB0114
:104280009AA389A389A19AA19E8F8D8F8D8D9E8DD2
:104290000197F1F79E8F8D8FDE01AD59BF4FFE0163
:1042A000ED59FF4F80819181019611969C938E93D9
:1042B000FE01ED59FF4F808191818B3091050CF407
:1042C000EECEFE01EB59FF4F8081882309F01ACD15
:1042D000FE01E859FF4F8081882309F0F5C0DE0117
:1042E000A859BF4FFE01E859FF4F80818F5F8C9323
:1042F00080E090E0A8E4B3E4898F9A8FAB8FBC8F05
:10430000698D7A8D8B8D9C8D20E030E04AE755E4F5
:104310000E941F02DC01CB018D8B9E8BAF8BB88F6F
:104320006D897E898F89988D20E030E040E85FE3D9
:104330000E94250488232CF481E090E09C8B8B8BD9
:104340003FC06D897E898F89988D20E03FEF4FE7D0
:1043500057E40E94C50318164CF5698D7A8D8B8D34
:104360009C8D20E030E040E251E40E941F02DC011D
:10437000CB01BC01CD010E944900DC01CB019C8B2B
:104380008B8B0FC080E991E09A8B898B89899A8900
:104390000197F1F79A8B898B8B899C8901979C8B6C
:1043A0008B8B8B899C89009769F714C06D897E89F6
:1043B0008F89988D0E944900DC01CB019C8B8B8BEF
:1043C0008B899C89988B8F878F8598890197F1F7C6
:1043D000988B8F870E94B3128EE990E00E94FF10A5
:1043E00080E090E0AAEFB3E48B879C87AD87BE871F
:1043F0006B857C858D859E8520E030E04AE755E41D
:104400000E941F02DC01CB018F839887A987BA879E
:104410006F81788589859A8520E030E040E85FE308
:104420000E94250488232CF481E090E09E838D83F4
:104430003FC06F81788589859A8520E03FEF4FE7FF
:1044400057E40E94C50318164CF56B857C858D8555
:104450009E8520E030E040E251E40E941F02DC0132
:10446000CB01BC01CD010E944900DC01CB019E8340
:104470008D830FC080E991E09C838B838B819C812D
:104480000197F1F79C838B838D819E8101979E8399
:104490008D838D819E81009769F714C06F81788527
:1044A00089859A850E944900DC01CB019E838D831A
:1044B0008D819E819A83898389819A810197F1F701
:1044C0009A8389830E94B3120E94C4121BCC629FFC
:1044D000D001739FF001829FE00DF11D649FE00DFC
:1044E000F11D929FF00D839FF00D749FF00D659F5D
:1044F000F00D9927729FB00DE11DF91F639FB00D5C
:10450000E11DF91FBD01CF0111240895A1E21A2E6A
:10451000AA1BBB1BFD010DC0AA1FBB1FEE1FFF1F67
:10452000A217B307E407F50720F0A21BB30BE40BB7
:10453000F50B661F771F881F991F1A9469F76095FE
:104540007095809590959B01AC01BD01CF010895B8
:104550002F923F924F925F926F927F928F929F9293
:10456000AF92BF92CF92DF92EF92FF920F931F9381
:10457000CF93DF93CDB7DEB7CA1BDB0B0FB6F89432
:10458000DEBF0FBECDBF09942A88398848885F8472
:104590006E847D848C849B84AA84B984C884DF80E3
:1045A000EE80FD800C811B81AA81B981CE0FD11DC7
:1045B0000FB6F894DEBF0FBECDBFED010895F8949D
:0245C000FFCF2B
:1045C2005354454552494E472E2E00446973746137
:1045D2006E6365206973200020204C4F47494E5F6F
:1045E20053595354454D00494E434F52524543543B
:1045F2000020776169742031302073656300434F76
:104602005252454354000000000000000000000127
:10461200020203030303040404040404040405055E
:104622000505050505050505050505050505060636
:104632000606060606060606060606060606060618
:104642000606060606060606060606060606070706
:1046520007070707070707070707070707070707E8
:1046620007070707070707070707070707070707D8
:1046720007070707070707070707070707070707C8
:1046820007070707070707070707070707070808B6
:104692000808080808080808080808080808080898
:1046A2000808080808080808080808080808080888
:1046B2000808080808080808080808080808080878
:1046C2000808080808080808080808080808080868
:1046D2000808080808080808080808080808080858
:1046E2000808080808080808080808080808080848
:1046F2000808080808080808080808080808080838
:1047020008080808080808080808080808083738C8
:10471200392F343536783132332D2F303D2B00018D
:0647220002030405060776
:00000001FF
