:100000000C9472000C9424130C9493000C949300A1
:100010000C9493000C9493000C9493000C94930014
:100020000C9493000C9493000C9493000C94930004
:100030000C9493000C9493000C9493000C949300F4
:100040000C9493000C9493000C9493000C949300E4
:100050000C9493000C9493000C9493000C949300D4
:100060000C9493000C9493000C9493000C949300C4
:100070000C9493000C9493000C9493000C949300B4
:100080000C9493000C9493000C9493000C949300A4
:100090000C9493000C9493000C9493000C94930094
:1000A0000C9493000C9493000C9493000C94930084
:1000B0000C9493000C9493000C9493000C94930074
:1000C0000C9493000C9493000C9493000C94930064
:1000D0000C9493000C9493000C9493000C94930054
:1000E0000C94930011241FBECFEFD1E2DEBFCDBF31
:1000F00000E00CBF13E0A0E0B2E0ECE9F7E200E0C2
:100100000BBF02C007900D92AE31B107D9F713E0D3
:10011000AEE1B3E001C01D92A532B107E1F70E9444
:100120003E120C94CC130C940000EF92FF920F93AC
:100130001F937B018C0120E030E040E05FE40E94EF
:10014000410488238CF0C801B70120E030E040E092
:100150005FE40E940D020E94A1049B01AC012050AB
:1001600030404040504806C0C801B7010E94A10479
:100170009B01AC01B901CA011F910F91FF90EF9053
:100180000895A0E0B0E0E7ECF0E00C949513DC01FA
:100190002B01FA019C91923008F439C1EB0188815E
:1001A000823008F433C1943069F4843009F02FC1EF
:1001B00011969C9111978981981709F428C1A5E19E
:1001C000B2E025C1843009F421C18230A9F4923013
:1001D00009F01DC19A01AD0188E0EA010990AE0164
:1001E000E90109929E018150C1F7E20189811196CE
:1001F0009C918923818308C1923009F407C112962A
:100200002D903C901397EB018A819B811496AD90C1
:10021000BD90CD90DC901797EC80FD800E811F8102
:100220009101281B390BB90137FF04C066277727D6
:10023000621B730B603271050CF061C0121613065D
:100240006CF537014801062E04C096948794779484
:1002500067940A94D2F721E030E040E050E004C017
:10026000220F331F441F551F6A95D2F7215030408B
:10027000404050402E213F2140235123211531057C
:100280004105510521F021E030E040E050E07901E6
:100290008A01E628F728082919293CC0232BD1F127
:1002A000260E371E35014601062E04C0969487940B
:1002B000779467940A94D2F721E030E040E050E070
:1002C00004C0220F331F441F551F6A95D2F72150D7
:1002D0003040404050402A213B214C215D212115D6
:1002E00031054105510521F021E030E040E050E0CA
:1002F00059016A01A628B728C828D9280BC0821539
:1003000093052CF01C01AA24BB24650103C0EE2434
:10031000FF24870111969C91D20111968C91981718
:1003200009F445C0992339F0A80197012A193B091E
:100330004C095D0906C0A60195012E193F09400B25
:10034000510B57FD08C011823382228224833583EA
:10035000468357831DC081E08183338222828827B0
:100360009927DC01821B930BA40BB50B8483958327
:10037000A683B7830DC0220F331F441F551F24834C
:100380003583468357838281938101979383828348
:100390002481358146815781DA01C9010197A1097C
:1003A000B1098F5F9F4FAF4FBF4328F30BC09183BD
:1003B00033822282EA0CFB1C0C1D1D1DE482F58297
:1003C0000683178383E080832481358146815781AA
:1003D00057FF1AC0C901AA2797FDA095BA2F8170AF
:1003E0009070A070B0705695479537952795822BE1
:1003F000932BA42BB52B84839583A683B78382810B
:100400009381019693838283DF0101C0D201CD01E4
:10041000CDB7DEB7E2E10C94B113A0E2B0E0E3E1C6
:10042000F2E00C94A11369837A838B839C832D83E0
:100430003E834F835887E9E0EE2EF12CEC0EFD1E33
:10044000CE010196B7010E9492068E010F5E1F4FEA
:10045000CE010596B8010E9492068A8991E089270B
:100460008A8BC701B801AE01475E5F4F0E94C10091
:100470000E94BD05A096E6E00C94BD13A0E2B0E09A
:10048000E4E4F2E00C94A11369837A838B839C8368
:100490002D833E834F835887F9E0EF2EF12CEC0E2D
:1004A000FD1ECE010196B7010E9492068E010F5EDD
:1004B0001F4FCE010596B8010E949206C701B801F0
:1004C000AE01475E5F4F0E94C1000E94BD05A0962D
:1004D000E6E00C94BD13A0E2B0E0E1E7F2E00C949A
:1004E000951369837A838B839C832D833E834F830B
:1004F0005887CE010196BE01675F7F4F0E9492062A
:10050000CE010596BE016F5E7F4F0E9492069985CF
:10051000923088F089898230C8F0943019F48230A2
:1005200051F404C0843029F4923081F485E192E0E2
:10053000C6C0923049F420E09A858A89981321E058
:100540002A87CE010996BBC0823049F420E09A8503
:100550008A89981321E02A8BCE014196B0C02D8460
:100560003E844F8458886D887E888F88988CEE24CE
:10057000FF248701AA24BB24650140E050E060E02D
:1005800070E0E0E0F0E0C10181709070892BE9F04B
:10059000E60CF71C081D191D9A01AB012A0D3B1D25
:1005A0004C1D5D1D80E090E0A0E0B0E0E614F70493
:1005B0000805190520F481E090E0A0E0B0E0BA0160
:1005C000A901480F591F6A1F7B1FAA0CBB1CCC1C1A
:1005D000DD1C97FE08C081E090E0A0E0B0E0A82A12
:1005E000B92ACA2ADB2A3196E032F10549F0660CB5
:1005F000771C881C991C5694479437942794C3CF32
:10060000FA85EA892B893C898B859C85280F391FBF
:100610002E5F3F4F17C0CA0181709070892B61F027
:1006200016950795F794E79480E090E0A0E0B0E895
:10063000E82AF92A0A2B1B2B76956795579547953B
:100640002F5F3F4F77FDE7CF0CC0440F551F661F4C
:10065000771F17FD4160EE0CFF1C001F111F21507A
:100660003040403090E0590790E0690790E4790706
:1006700060F32B8F3C8FDB01CA018F779070A070E5
:10068000B07080349105A105B10561F447FD0AC041
:10069000E114F1040105110529F0405C5F4F6F4F33
:1006A0007F4F40781A8EFE1711F081E08A8F4D8FB0
:1006B0005E8F6F8F78A383E0898FCE0149960E9469
:1006C000BD05A096E2E10C94B113A8E1B0E0EBE621
:1006D000F3E00C949D1369837A838B839C832D8331
:1006E0003E834F835887B9E0EB2EF12CEC0EFD1EB4
:1006F000CE010196B7010E9492068E010F5E1F4F38
:10070000CE010596B8010E9492062985223008F490
:100710007EC03989323010F4B8017CC08A859A894C
:1007200089278A87243011F0223031F4231709F009
:100730006EC065E172E06EC0343039F41D861E86ED
:100740001F86188A1C861B8604C0323021F484E080
:100750008987B7015FC02B853C858B899C89281BC5
:10076000390B3C872B87ED84FE840F851889AD8873
:10077000BE88CF88D88CEA14FB040C051D0540F414
:10078000EE0CFF1C001F111F215030403C872B87AF
:1007900020E030E040E050E080E090E0A0E0B0E415
:1007A00060E070E0EA14FB040C051D0540F0282B06
:1007B000392B4A2B5B2BEA18FB080C091D09B6954F
:1007C000A79597958795EE0CFF1C001F111F6F5F73
:1007D0007F4F6F31710531F7DA01C9018F77907062
:1007E000A070B07080349105A105B10561F427FDBA
:1007F0000AC0E114F1040105110529F0205C3F4F06
:100800004F4F5F4F20782D873E874F87588BBE0113
:10081000675F7F4FCB010E94BD056896EAE00C94AC
:10082000B913A8E1B0E0E7E1F4E00C94A113698307
:100830007A838B839C832D833E834F83588789E003
:10084000E82EF12CEC0EFD1ECE010196B7010E94A0
:1008500092068E010F5E1F4FCE010596B8010E94D1
:1008600092068985823040F08989823028F0C7015C
:10087000B8010E940A0701C08FEF6896E6E00C9469
:10088000BD13A8E1B0E0E7E4F4E00C94A1136983A0
:100890007A838B839C832D833E834F83588789E0A3
:1008A000E82EF12CEC0EFD1ECE010196B7010E9440
:1008B00092068E010F5E1F4FCE010596B8010E9471
:1008C00092068985823040F08989823028F0C701FC
:1008D000B8010E940A0701C08FEF6896E6E00C9409
:1008E000BD13A8E1B0E0E7E7F4E00C94A11369833D
:1008F0007A838B839C832D833E834F83588789E043
:10090000E82EF12CEC0EFD1ECE010196B7010E94DF
:1009100092068E010F5E1F4FCE010596B8010E9410
:1009200092068985823040F08989823028F0C7019B
:10093000B8010E940A0701C081E06896E6E00C94C5
:10094000BD13ACE0B0E0E7EAF4E00C94A5136983D2
:100950007A838B839C83CE010196BE016B5F7F4FB0
:100960000E9492068D81823061F1823050F1843094
:1009700021F48E81882351F12EC02F81388537FDD7
:1009800020C06E812F3131051CF06623F9F023C0A1
:100990008EE190E0821B930B29853A854B855C851F
:1009A00004C056954795379527958A95D2F76623C3
:1009B000B1F050954095309521953F4F4F4F5F4F87
:1009C0000EC020E030E040E050E009C02FEF3FEFE4
:1009D0004FEF5FE704C020E030E040E050E8B901AD
:1009E000CA012C96E2E00C94C113A8E0B0E0EBEF52
:1009F000F4E00C949D137B018C0161157105810558
:100A0000910519F482E0898360C083E089838EE1D7
:100A1000C82ED12CDC82CB82ED82FE820F83188718
:100A2000C801B7010E946E05FC013197F7FF3BC07A
:100A3000222733272E1B3F0B57016801022E04C0CB
:100A4000D694C794B794A7940A94D2F740E050E0A4
:100A500060E070E081E090E0A0E0B0E004C0880FCA
:100A6000991FAA1FBB1F2A95D2F70197A109B109A7
:100A70008E219F21A023B1230097A105B10521F06C
:100A800041E050E060E070E04A295B296C297D2953
:100A90004D835E836F8378878EE190E08E1B9F0B82
:100AA0009C838B8312C0309781F00E2E04C0EE0C15
:100AB000FF1C001F111F0A94D2F7ED82FE820F83E4
:100AC0001887CE1ADF0ADC82CB821A82CE01019609
:100AD0000E94BD052896EAE00C94B913EF92FF92AC
:100AE0000F931F937B018C0180E0E81680E0F806ED
:100AF00081E0080780E0180788F48FEFE816F1041A
:100B00000105110531F028F088E090E0A0E0B0E0A8
:100B100017C080E090E0A0E0B0E012C080E0E816EE
:100B200080E0F80680E0080781E0180728F088E1F7
:100B300090E0A0E0B0E004C080E190E0A0E0B0E090
:100B400020E230E040E050E0281B390B4A0B5B0B01
:100B500004C016950795F794E7948A95D2F7F701A4
:100B6000E35EFD4F8081281B310941095109C9010C
:100B70001F910F91FF90EF900895DF92EF92FF92F7
:100B80000F931F93FC01E480F58006811781D180CB
:100B90008081823048F480E090E0A0E1B0E0E82A73
:100BA000F92A0A2B1B2BA5C0843009F49FC0823080
:100BB00021F4EE24FF24870105C0E114F1040105AE
:100BC000110519F4E0E0F0E096C0628173819FEFB7
:100BD000623879070CF05BC022E83FEF261B370B29
:100BE0002A3131052CF020E030E040E050E02AC00E
:100BF000B801A701022E04C07695679557954795D1
:100C00000A94D2F781E090E0A0E0B0E004C0880F41
:100C1000991FAA1FBB1F2A95D2F70197A109B109F5
:100C20008E219F21A023B1230097A105B10521F0BA
:100C300081E090E0A0E0B0E09A01AB01282B392BD5
:100C40004A2B5B2BDA01C9018F779070A070B070CE
:100C500080349105A105B10539F427FF09C0205C56
:100C60003F4F4F4F5F4F04C0215C3F4F4F4F5F4F8F
:100C7000E0E0F0E02030A0E03A07A0E04A07A0E47E
:100C80005A0710F0E1E0F0E079018A0127C06038EE
:100C9000710564F5FB01E158FF4FD801C7018F775B
:100CA0009070A070B07080349105A105B10539F441
:100CB000E7FE0DC080E490E0A0E0B0E004C08FE368
:100CC00090E0A0E0B0E0E80EF91E0A1F1B1F17FF1E
:100CD00005C016950795F794E794319687E0169529
:100CE0000795F794E7948A95D1F705C0EE24FF2481
:100CF0008701EFEFF0E06E2F679566276795902FDD
:100D00009F77D794DD24D7948E2F8695492F462B35
:100D1000582F5D29B701CA011F910F91FF90EF90E5
:100D2000DF900895FC01DB01408151812281622F17
:100D30006F7770E0221F2227221F9381892F880F4F
:100D4000822B282F30E0991F9927991F11969C9389
:100D5000119721153105A9F5411551056105710559
:100D600011F482E037C082E89FEF13969C938E9334
:100D700012979A01AB0167E0220F331F441F551FE2
:100D80006A95D1F783E08C930DC0220F331F441F67
:100D9000551F12968D919C911397019713969C93D2
:100DA0008E931297203080E0380780E0480780E477
:100DB000580758F314962D933D934D935C931797D2
:100DC00008952F3F310579F44115510561057105ED
:100DD00019F484E08C93089564FF03C081E08C9340
:100DE00012C01C9210C02F57304013963C932E9384
:100DF000129783E08C9387E0440F551F661F771F7F
:100E00008A95D1F7706414964D935D936D937C939E
:100E1000179708951F93DC01FB019C91923008F411
:100E200047C08081823008F443C0943051F4119659
:100E30001C91843099F58181682F70E0611B7109E4
:100E40003FC0843021F0923031F48230B9F1818199
:100E5000882389F12DC011961C9111978230F1F0F1
:100E600081811817D9F412962D913C9113978281A4
:100E700093818217930794F028173907BCF01496D2
:100E80008D919D910D90BC91A02D2481358146813D
:100E90005781281739074A075B0718F4112341F0D7
:100EA0000AC082179307A407B50740F4112319F06D
:100EB00061E070E005C06FEF7FEF02C060E070E0BE
:100EC000CB011F910895DF93CF93CDB7DEB727975E
:100ED0000FB6F894DEBF0FBECDBF89836A834B8304
:100EE0008B81813009F06FC08981282F30E03F83EA
:100EF0002E838E819F818130910549F12E813F8122
:100F0000223031052CF48E819F81009761F0D2C090
:100F10002E813F812230310571F18E819F81833096
:100F20009105E9F1C7C0A1E2B0E0E1E2F0E0808123
:100F3000482F8A81282F30E081E090E0022E02C005
:100F4000880F991F0A94E2F7842B8C93B3C0A4E214
:100F5000B0E0E4E2F0E08081482F8A81282F30E081
:100F600081E090E0022E02C0880F991F0A94E2F7F8
:100F7000842B8C939FC0A7E2B0E0E7E2F0E0808191
:100F8000482F8A81282F30E081E090E0022E02C0B5
:100F9000880F991F0A94E2F7842B8C938BC0AAE2E6
:100FA000B0E0EAE2F0E08081482F8A81282F30E02B
:100FB00081E090E0022E02C0880F991F0A94E2F7A8
:100FC000842B8C9377C08B81882309F073C089812F
:100FD000282F30E03D832C838C819D8181309105C9
:100FE00059F12C813D81223031052CF48C819D8179
:100FF000009769F05FC02C813D812230310589F175
:101000008C819D818330910509F440C053C0A1E2D9
:10101000B0E0E1E2F0E08081482F8A81282F30E0C3
:1010200081E090E0022E02C0880F991F0A94E2F737
:10103000809584238C933EC0A4E2B0E0E4E2F0E02B
:101040008081482F8A81282F30E081E090E0022EB5
:1010500002C0880F991F0A94E2F7809584238C932D
:1010600029C0A7E2B0E0E7E2F0E08081482F8A8162
:10107000282F30E081E090E0022E02C0880F991FF7
:101080000A94E2F7809584238C9314C0AAE2B0E01E
:10109000EAE2F0E08081482F8A81282F30E081E069
:1010A00090E0022E02C0880F991F0A94E2F7809503
:1010B00084238C9327960FB6F894DEBF0FBECDBF66
:1010C000CF91DF910895DF93CF93CDB7DEB7279708
:1010D0000FB6F894DEBF0FBECDBF89836A834B8302
:1010E0008B81813009F06FC08981282F30E03F83E8
:1010F0002E838E819F818130910549F12E813F8120
:10110000223031052CF48E819F81009761F0D2C08E
:101110002E813F812230310571F18E819F81833094
:101120009105E9F1C7C0A2E2B0E0E2E2F0E080811F
:10113000482F8A81282F30E081E090E0022E02C003
:10114000880F991F0A94E2F7842B8C93B3C0A5E211
:10115000B0E0E5E2F0E08081482F8A81282F30E07E
:1011600081E090E0022E02C0880F991F0A94E2F7F6
:10117000842B8C939FC0A8E2B0E0E8E2F0E080818D
:10118000482F8A81282F30E081E090E0022E02C0B3
:10119000880F991F0A94E2F7842B8C938BC0ABE2E3
:1011A000B0E0EBE2F0E08081482F8A81282F30E028
:1011B00081E090E0022E02C0880F991F0A94E2F7A6
:1011C000842B8C9377C08B81882309F073C089812D
:1011D000282F30E03D832C838C819D8181309105C7
:1011E00059F12C813D81223031052CF48C819D8177
:1011F000009769F05FC02C813D812230310589F173
:101200008C819D818330910509F440C053C0A2E2D6
:10121000B0E0E2E2F0E08081482F8A81282F30E0C0
:1012200081E090E0022E02C0880F991F0A94E2F735
:10123000809584238C933EC0A5E2B0E0E5E2F0E027
:101240008081482F8A81282F30E081E090E0022EB3
:1012500002C0880F991F0A94E2F7809584238C932B
:1012600029C0A8E2B0E0E8E2F0E08081482F8A815E
:10127000282F30E081E090E0022E02C0880F991FF5
:101280000A94E2F7809584238C9314C0ABE2B0E01B
:10129000EBE2F0E08081482F8A81282F30E081E066
:1012A00090E0022E02C0880F991F0A94E2F7809501
:1012B00084238C9327960FB6F894DEBF0FBECDBF64
:1012C000CF91DF910895DF93CF9300D000D0CDB7B9
:1012D000DEB789836A838981282F30E03D832C83A0
:1012E0004C815D814130510549F18C819D81823075
:1012F000910534F42C813D812115310561F057C0F1
:101300004C815D814230510561F18C819D8183303A
:101310009105D1F14CC0E0E2F0E08081282F30E06F
:101320008A81882F90E0A90102C0559547958A953A
:10133000E2F7CA01582F51705B833AC0E3E2F0E054
:101340008081282F30E08A81882F90E0A90102C097
:10135000559547958A95E2F7CA01582F51705B83DE
:1013600027C0E6E2F0E08081282F30E08A81882FD4
:1013700090E0A90102C0559547958A95E2F7CA0108
:10138000582F51705B8314C0E9E2F0E08081282F70
:1013900030E08A81882F90E0A90102C055954795D9
:1013A0008A95E2F7CA01582F51705B8301C002C0D1
:1013B0008B818E838E8126960FB6F894DEBF0FBE8A
:1013C000CDBFCF91DF910895DF93CF9300D00F92DF
:1013D000CDB7DEB789836A838981282F30E03C83CB
:1013E0002B838B819C8181309105D1F02B813C81B5
:1013F000223031052CF48B819C81009761F01EC056
:101400002B813C812230310581F08B819C8183309E
:10141000910581F013C0E2E2F0E08A8180830EC082
:10142000E5E2F0E08A81808309C0E8E2F0E08A81A9
:10143000808304C0EBE2F0E08A8180830F900F90FC
:101440000F900F90CF91DF910895DF93CF9300D04D
:101450000F92CDB7DEB789836A838981282F30E068
:101460003C832B838B819C8181309105D1F02B8132
:101470003C81223031052CF48B819C81009761F0F6
:101480001EC02B813C812230310581F08B819C81F3
:101490008330910581F013C0E1E2F0E08A8180831E
:1014A0000EC0E4E2F0E08A81808309C0E7E2F0E068
:1014B0008A81808304C0EAE2F0E08A8180830F9011
:1014C0000F900F900F90CF91DF910895DF93CF93FE
:1014D00000D00F92CDB7DEB789836A838981282F28
:1014E00030E03C832B838B819C818130910549F1D5
:1014F0002B813C81223031052CF48B819C8100971B
:1015000061F05AC02B813C812230310571F18B8111
:101510009C8183309105E9F14FC0A2E2B0E0E2E2A4
:10152000F0E08081482F8A81282F30E081E090E030
:10153000022E02C0880F991F0A94E2F784278C9329
:101540003BC0A5E2B0E0E5E2F0E08081482F8A816F
:10155000282F30E081E090E0022E02C0880F991F12
:101560000A94E2F784278C9327C0A8E2B0E0E8E26F
:10157000F0E08081482F8A81282F30E081E090E0E0
:10158000022E02C0880F991F0A94E2F784278C93D9
:1015900013C0ABE2B0E0EBE2F0E08081482F8A813B
:1015A000282F30E081E090E0022E02C0880F991FC2
:1015B0000A94E2F784278C930F900F900F900F906E
:1015C000CF91DF910895DF93CF93CDB7DEB7E89742
:1015D0000FB6F894DEBF0FBECDBF80E06FEF0E9464
:1015E000250A82E065E041E00E94630782E066E050
:1015F00041E00E94630782E067E041E00E946307E8
:1016000080E090E0ACE0B2E48DAB9EABAFABB8AFA6
:101610006DA97EA98FA998AD20E030E04AEF54E48F
:101620000E946B02DC01CB0189AB9AABABABBCABCC
:1016300069A97AA98BA99CA920E030E040E85FE382
:101640000E94710488232CF481E090E098AB8FA76E
:101650003FC069A97AA98BA99CA920E03FEF4FE779
:1016600057E40E94110418164CF56DA97EA98FA9A4
:1016700098AD20E030E040E251E40E946B02DC01D2
:10168000CB01BC01CD010E949500DC01CB0198ABE0
:101690008FA70FC088EC90E09EA78DA78DA59EA573
:1016A0000197F1F79EA78DA78FA598A9019798ABF1
:1016B0008FA78FA598A9009769F714C069A97AA97F
:1016C0008BA99CA90E949500DC01CB0198AB8FA748
:1016D0008FA598A99CA78BA78BA59CA50197F1F72F
:1016E0009CA78BA788E30E94DA0C80E090E0A0E83A
:1016F000BFE38FA398A7A9A7BAA76FA178A589A5CB
:101700009AA520E030E04AEF54E40E946B02DC012D
:10171000CB018BA39CA3ADA3BEA36BA17CA18DA188
:101720009EA120E030E040E85FE30E94710488233E
:101730002CF481E090E09AA389A33FC06BA17CA127
:101740008DA19EA120E03FEF4FE757E40E941104D6
:1017500018164CF56FA178A589A59AA520E030E070
:1017600040E251E40E946B02DC01CB01BC01CD01DF
:101770000E949500DC01CB019AA389A30FC088ECDD
:1017800090E098A38F8F8F8D98A10197F1F798A380
:101790008F8F89A19AA101979AA389A389A19AA160
:1017A000009769F714C06BA17CA18DA19EA10E9436
:1017B0009500DC01CB019AA389A389A19AA19E8FF0
:1017C0008D8F8D8D9E8D0197F1F79E8F8D8F8FE080
:1017D0000E94DA0C80E090E0A0E8BFE3898F9A8F46
:1017E000AB8FBC8F698D7A8D8B8D9C8D20E030E026
:1017F0004AEF54E40E946B02DC01CB018D8B9E8B7F
:10180000AF8BB88F6D897E898F89988D20E030E00D
:1018100040E85FE30E94710488232CF481E090E0AB
:101820009C8B8B8B3FC06D897E898F89988D20E042
:101830003FEF4FE757E40E94110418164CF5698DED
:101840007A8D8B8D9C8D20E030E040E251E40E9447
:101850006B02DC01CB01BC01CD010E949500DC01D3
:10186000CB019C8B8B8B0FC088EC90E09A8B898B83
:1018700089899A890197F1F79A8B898B8B899C8941
:1018800001979C8B8B8B8B899C89009769F714C07F
:101890006D897E898F89988D0E949500DC01CB012E
:1018A0009C8B8B8B8B899C89988B8F878F85988954
:1018B0000197F1F7988B8F8781E00E94DA0C80E026
:1018C00090E0A0E0B0E48B879C87AD87BE876B85F6
:1018D0007C858D859E8520E030E04AEF54E40E94AF
:1018E0006B02DC01CB018F839887A987BA876F8150
:1018F000788589859A8520E030E040E85FE30E94A2
:10190000710488232CF481E090E09E838D833FC096
:101910006F81788589859A8520E03FEF4FE757E40E
:101920000E94110418164CF56B857C858D859E856B
:1019300020E030E040E251E40E946B02DC01CB0188
:10194000BC01CD010E949500DC01CB019E838D83FB
:101950000FC088EC90E09C838B838B819C810197E6
:10196000F1F79C838B838D819E8101979E838D836C
:101970008D819E81009769F714C06F817885898574
:101980009A850E949500DC01CB019E838D838D8119
:101990009E819A83898389819A810197F1F79A833D
:1019A0008983E8960FB6F894DEBF0FBECDBFCF9106
:1019B000DF910895DF93CF93CDB7DEB72F970FB6A2
:1019C000F894DEBF0FBECDBF8F8782E065E040E0B8
:1019D0000E94630882E066E040E00E94630880E0C5
:1019E0006F850E94E40982E067E041E00E9463089D
:1019F00080E090E0A0E8BFE38B879C87AD87BE873F
:101A00006B857C858D859E8520E030E04AEF54E42F
:101A10000E946B02DC01CB018F839887A987BA876C
:101A20006F81788589859A8520E030E040E85FE322
:101A30000E94710488232CF481E090E09E838D83C2
:101A40003FC06F81788589859A8520E03FEF4FE719
:101A500057E40E94110418164CF56B857C858D8522
:101A60009E8520E030E040E251E40E946B02DC0100
:101A7000CB01BC01CD010E949500DC01CB019E830E
:101A80008D830FC088EC90E09C838B838B819C813D
:101A90000197F1F79C838B838D819E8101979E83B3
:101AA0008D838D819E81009769F714C06F81788541
:101AB00089859A850E949500DC01CB019E838D83E8
:101AC0008D819E819A83898389819A810197F1F71B
:101AD0009A83898382E067E040E00E9463082F9642
:101AE0000FB6F894DEBF0FBECDBFCF91DF91089542
:101AF000DF93CF93CDB7DEB72F970FB6F894DEBF45
:101B00000FBECDBF8F8782E065E041E00E94630891
:101B100082E066E040E00E94630880E06F850E94FA
:101B2000E40982E067E041E00E94630880E090E021
:101B3000A0E8BFE38B879C87AD87BE876B857C85DC
:101B40008D859E8520E030E04AEF54E40E946B02D0
:101B5000DC01CB018F839887A987BA876F8178854D
:101B600089859A8520E030E040E85FE30E947104B7
:101B700088232CF481E090E09E838D833FC06F81A9
:101B8000788589859A8520E03FEF4FE757E40E94EA
:101B9000110418164CF56B857C858D859E8520E09B
:101BA00030E040E251E40E946B02DC01CB01BC0159
:101BB000CD010E949500DC01CB019E838D830FC077
:101BC00088EC90E09C838B838B819C810197F1F75B
:101BD0009C838B838D819E8101979E838D838D81D4
:101BE0009E81009769F714C06F81788589859A85F1
:101BF0000E949500DC01CB019E838D838D819E81A7
:101C00009A83898389819A810197F1F79A838983DD
:101C100082E067E040E00E9463082F960FB6F894D8
:101C2000DEBF0FBECDBFCF91DF910895DF93CF937D
:101C300000D0CDB7DEB79B838A8319820EC089811D
:101C4000282F30E08A819B81FC01E20FF31F808105
:101C50000E94780D89818F5F89838981282F30E0E8
:101C60008A819B81FC01E20FF31F8081882339F771
:101C70000F900F900F90CF91DF910895DF93CF9346
:101C800000D00F92CDB7DEB789836A838981282F70
:101C900030E03C832B838B819C81009731F02B813A
:101CA0003C812130310531F009C08A8180580E9481
:101CB000DA0C04C08A8180540E94DA0C0F900F90D5
:101CC0000F900F90CF91DF910895DF93CF9300D0C5
:101CD0000F92CDB7DEB78A837C836B838A81882F8E
:101CE00090E00896880F991F880F991F880F991FF9
:101CF0000E94DA0C19820EC08981282F30E08B8176
:101D00009C81FC01E20FF31F80810E94780D898184
:101D10008F5F89838981883078F30F900F900F90BF
:101D20000F90CF91DF910895DF93CF93CDB7DEB7BA
:101D30002F970FB6F894DEBF0FBECDBF8F8782E01E
:101D400065E041E00E94630882E066E040E00E94B6
:101D500063088F85982F905D80E0692F0E94E409C9
:101D600082E067E041E00E94630880E090E0A0E844
:101D7000BFE38B879C87AD87BE876B857C858D8510
:101D80009E8520E030E04AEF54E40E946B02DC01C3
:101D9000CB018F839887A987BA876F8178858985DA
:101DA0009A8520E030E040E85FE30E9471048823D8
:101DB0002CF481E090E09E838D833FC06F81788515
:101DC00089859A8520E03FEF4FE757E40E94110490
:101DD00018164CF56B857C858D859E8520E030E05E
:101DE00040E251E40E946B02DC01CB01BC01CD0159
:101DF0000E949500DC01CB019E838D830FC088EC8F
:101E000090E09C838B838B819C810197F1F79C836D
:101E10008B838D819E8101979E838D838D819E8191
:101E2000009769F714C06F81788589859A850E942B
:101E30009500DC01CB019E838D838D819E819A83E9
:101E4000898389819A810197F1F79A83898382E056
:101E500067E040E00E9463082F960FB6F894DEBF5B
:101E60000FBECDBFCF91DF910895DF93CF93CDB754
:101E7000DEB72D970FB6F894DEBF0FBECDBF6A87D1
:101E80007B878C879D8781E090E0A0E0B0E08E8327
:101E90009F83A887B9878A859B85AC85BD858A8302
:101EA0009B83AC83BD8324C08E819F81A885B98527
:101EB0002AE030E040E050E0BC01CD010E94541324
:101EC000DC01CB018E839F83A887B9878A819B81A0
:101ED000AC81BD812AE030E040E050E0BC01CD01A2
:101EE0000E947313DA01C9018A839B83AC83BD838B
:101EF0008A819B81AC81BD818A309105A105B105A4
:101F000098F636C08A859B85AC85BD852E813F813C
:101F100048855985BC01CD010E947313DA01C901BE
:101F2000898389810E94940E8A859B85AC85BD85B5
:101F30002E813F8148855985BC01CD010E947313D4
:101F4000DC01CB018A879B87AC87BD878E819F810F
:101F5000A885B9852AE030E040E050E0BC01CD0121
:101F60000E947313DA01C9018E839F83A887B98702
:101F70008E819F81A885B9850097A105B10511F6CD
:101F80002D960FB6F894DEBF0FBECDBFCF91DF9177
:101F90000895DF93CF93CDB7DEB781E00E94DA0CCE
:101FA00080E20E94780D80E060E00E943E0ECF91BA
:101FB000DF910895DF93CF93CDB7DEB7E0E8F0E08F
:101FC0001082E1E8F0E01082A1E8B0E0E1E8F0E0A2
:101FD000808184608C93E4E8F0E011821082CF91DC
:101FE000DF910895DF93CF93CDB7DEB7E5ECF0E056
:101FF0001082E4ECF0E083E38083E1ECF0E088E140
:102000008083E2ECF0E086E08083CF91DF91089559
:10201000DF93CF930F92CDB7DEB78983E0ECF0E08A
:102020008081882F90E0807290700097B9F3E6EC81
:10203000F0E0898180830F90CF91DF910895DF9345
:10204000CF93CDB7DEB7E0ECF0E080818823DCF7FA
:10205000E6ECF0E08081CF91DF910895DF93CF939C
:10206000CDB7DEB7AA970FB6F894DEBF0FBECDBFCF
:1020700080912003813009F0CEC1E4E8F0E0808156
:10208000918190931F0380931E03109220038091EF
:102090001E0390911F0396958795CC01A0E0B0E0B8
:1020A000BC01CD010E94F504DC01CB01BC01CD01D6
:1020B00028E23EE74CE85FE30E946B02DC01CB01C3
:1020C0008093210390932203A0932303B0932403CE
:1020D0008091210390912203A0912303B0912403C6
:1020E000BC01CD0120E030E044EB52E40E947104D9
:1020F00088230CF0FDC080E092E00E94160E80E084
:1021000090E0AAE7B3E48FA398A7A9A7BAA76FA105
:1021100078A589A59AA520E030E04AEF54E40E9412
:102120006B02DC01CB018BA39CA3ADA3BEA36BA16F
:102130007CA18DA19EA120E030E040E85FE30E94F9
:10214000710488232CF481E090E09AA389A33FC016
:102150006BA17CA18DA19EA120E03FEF4FE757E44A
:102160000E94110418164CF56FA178A589A59AA5AF
:1021700020E030E040E251E40E946B02DC01CB0140
:10218000BC01CD010E949500DC01CB019AA389A37B
:102190000FC088EC90E098A38F8F8F8D98A1019746
:1021A000F1F798A38F8F89A19AA101979AA389A388
:1021B00089A19AA1009769F714C06BA17CA18DA198
:1021C0009EA10E949500DC01CB019AA389A389A15D
:1021D0009AA19E8F8D8F8D8D9E8D0197F1F79E8F89
:1021E0008D8F0E94C90F81E00E9408108091210309
:1021F00090912203A0912303B0912403BC01CD014F
:102200000E949500DC01CB010E94081080E090E064
:10221000AAE7B3E4898F9A8FAB8FBC8F698D7A8DD3
:102220008B8D9C8D20E030E04AEF54E40E946B02DD
:10223000DC01CB018D8B9E8BAF8BB88F6D897E8936
:102240008F89988D20E030E040E85FE30E947104C0
:1022500088232CF481E090E09C8B8B8B3FC06D89B0
:102260007E898F89988D20E03FEF4FE757E40E94E9
:10227000110418164CF5698D7A8D8B8D9C8D20E09C
:1022800030E040E251E40E946B02DC01CB01BC0172
:10229000CD010E949500DC01CB019C8B8B8B0FC084
:1022A00088EC90E09A8B898B89899A890197F1F75C
:1022B0009A8B898B8B899C8901979C8B8B8B8B89C3
:1022C0009C89009769F714C06D897E898F89988DE4
:1022D0000E949500DC01CB019C8B8B8B8B899C89A8
:1022E000988B8F878F8598890197F1F7988B8F87C7
:1022F0000E94C90F80E062E00E943E0E88E092E0FA
:102300000E94160E81E067E00E943E0E809121033C
:1023100090912203A0912303B0912403BC01CD012D
:102320000E949500DC01CB01BC01CD010E94350F5C
:1023300080E090E0AAE7B3E48B879C87AD87BE87F7
:102340006B857C858D859E8520E030E04AEF54E4E6
:102350000E946B02DC01CB018F839887A987BA8723
:102360006F81788589859A8520E030E040E85FE3D9
:102370000E94710488232CF481E090E09E838D8379
:102380003FC06F81788589859A8520E03FEF4FE7D0
:1023900057E40E94110418164CF56B857C858D85D9
:1023A0009E8520E030E040E251E40E946B02DC01B7
:1023B000CB01BC01CD010E949500DC01CB019E83C5
:1023C0008D830FC088EC90E09C838B838B819C81F4
:1023D0000197F1F79C838B838D819E8101979E836A
:1023E0008D838D819E81009769F722C06F817885EA
:1023F00089859A850E949500DC01CB019E838D839F
:102400008D819E819A83898389819A810197F1F7D1
:102410009A8389830DC080912003882349F4E4E8DE
:10242000F0E01182108281E0809320030E94C90FA6
:10243000AA960FB6F894DEBF0FBECDBFCF91DF9145
:102440000895DF93CF93CDB7DEB7AAE2B0E0EAE21A
:10245000F0E080818E7F8C93A9E6B0E0E9E6F0E0C1
:10246000808181608C93ADE3B0E0EDE3F0E08081AA
:1024700081608C937894CF91DF910895DF93CF930F
:10248000CDB7DEB768970FB6F894DEBF0FBECDBFED
:102490000E94DA0F0E94F20F0E94E30A0E942112AA
:1024A000AAE2B0E0EAE2F0E0808180688C93ABE2DF
:1024B000B0E0EBE2F0E0808180688C9380E090E017
:1024C000A0E7B1E48D8B9E8BAF8BB88F6D897E8931
:1024D0008F89988D2BEA3AEA4AE250E40E946B0217
:1024E000DC01CB01898B9A8BAB8BBC8B69897A8998
:1024F0008B899C8920E030E040E85FE30E94710412
:1025000088231CF481E0888B91C069897A898B8942
:102510009C8920E030E04FE753E40E941104181634
:102520000CF07BC06D897E898F89988D20E030E02A
:102530004AE754E40E946503DC01CB018C879D8748
:10254000AE87BF876C857D858E859F8520E030E0D6
:102550004AEF54E40E946B02DC01CB018887998723
:10256000AA87BB87688579858A859B8520E030E0CE
:1025700040E85FE30E94710488232CF481E090E03E
:102580009F838E833FC0688579858A859B8520E0FF
:102590003FEF4FE757E40E94110418164CF56C8585
:1025A0007D858E859F8520E030E040E251E40E94E9
:1025B0006B02DC01CB01BC01CD010E949500DC0166
:1025C000CB019F838E830FC088EC90E09D838C832A
:1025D0008C819D810197F1F79D838C838E819F81F2
:1025E00001979F838E838E819F81009769F724C016
:1025F000688579858A859B850E949500DC01CB01E1
:102600009F838E838E819F819B838A838A819B8116
:102610000197F1F79B838A830FC069897A898B8937
:102620009C890E949500DC01CB01888B8889898375
:1026300089818A95F1F78983ABE2B0E0EBE2F0E0C3
:1026400080818F778C9333CF1F920F920FB60F92AA
:1026500000905B000F9211242F933F934F935F9351
:102660006F937F938F939F93AF93BF93EF93FF935A
:10267000DF93CF93CDB7DEB70E942E10CF91DF91BD
:10268000FF91EF91BF91AF919F918F917F916F914A
:102690005F914F913F912F910F9000925B000F90AF
:1026A0000FBE0F901F901895629FD001739FF0018D
:1026B000829FE00DF11D649FE00DF11D929FF00DD2
:1026C000839FF00D749FF00D659FF00D9927729F09
:1026D000B00DE11DF91F639FB00DE11DF91FBD0194
:1026E000CF0111240895A1E21A2EAA1BBB1BFD01E4
:1026F0000DC0AA1FBB1FEE1FFF1FA217B307E407E1
:10270000F50720F0A21BB30BE40BF50B661F771F38
:10271000881F991F1A9469F7609570958095909518
:102720009B01AC01BD01CF0108952F923F924F92C2
:102730005F926F927F928F929F92AF92BF92CF9251
:10274000DF92EF92FF920F931F93CF93DF93CDB75A
:10275000DEB7CA1BDB0B0FB6F894DEBF0FBECDBFD2
:1027600019942A88398848885F846E847D848C8493
:102770009B84AA84B984C884DF80EE80FD800C81AC
:102780001B81AA81B981CE0FD11D0FB6F894DEBF8F
:0C2790000FBECDBFED010895F894FFCFFF
:10279C005741524E494E470044697374616E6365EC
:1027AC0020697320000000000000000000000102FE
:1027BC0002030303030404040404040404050505D0
:1027CC0005050505050505050505050505060606AA
:1027DC00060606060606060606060606060606068D
:1027EC00060606060606060606060606060707077A
:1027FC00070707070707070707070707070707075D
:10280C00070707070707070707070707070707074C
:10281C00070707070707070707070707070707073C
:10282C000707070707070707070707070708080829
:10283C00080808080808080808080808080808080C
:10284C0008080808080808080808080808080808FC
:10285C0008080808080808080808080808080808EC
:10286C0008080808080808080808080808080808DC
:10287C0008080808080808080808080808080808CC
:10288C0008080808080808080808080808080808BC
:10289C0008080808080808080808080808080808AC
:0E28AC000808080808080808080808080800B6
:00000001FF
